:100000000C945D000C947A000C947A000C947A00A5
:100010000C947A000C947A000C947A000C9494015D
:100020000C947A000C947A000C947A000C947A0068
:100030000C947A000C947A000C947A000C947A0058
:100040000C944A010C947A000C947A000C947A0077
:100050000C947A000C947A000C947A000C947A0038
:100060000C947A000C947A00000000080002010051
:100070000003040700000000000000000000000072
:10008000240027002A0001020408102040800102F9
:1000900004081020010204081020000000002500C0
:1000A00028002B00040404040404040402020202D5
:1000B0000202030303030303020011241FBECFEF58
:1000C000D8E0DEBFCDBF11E0A0E0B1E0EAE0FCE0A7
:1000D00002C005900D92A430B107D9F721E0A4E049
:1000E000B1E001C01D92A032B207E1F70E94F00119
:1000F0000C9403060C9400003FB7F89480911C0107
:1001000090911D01A0911E01B0911F0126B5A89BE1
:1001100005C02F3F19F00196A11DB11D3FBFBA2F99
:10012000A92F982F8827820F911DA11DB11DBC01F9
:10013000CD0142E0660F771F881F991F4A95D1F7BE
:1001400008958F929F92AF92BF92CF92DF92EF92DB
:10015000FF926B017C010E947C004B015C01C11489
:10016000D104E104F104F1F00E947C00DC01CB0138
:1001700088199909AA09BB09883E9340A105B105D0
:1001800070F321E0C21AD108E108F10888EE880E68
:1001900083E0981EA11CB11CC114D104E104F10438
:1001A00019F7DDCFFF90EF90DF90CF90BF90AF9029
:1001B0009F908F90089590910001891324C0E8EBDF
:1001C000F0E0E4919FEF90930001E130B9F098F0F6
:1001D000E230C9F4909170009D7F9093700091E09F
:1001E0009093B0009091B100987F94609093B1008B
:1001F0001092B30008C010926E0005C090916F007D
:100200009D7F90936F0090E0FC01E859FF4F24918F
:10021000FC01EA57FF4F3491FC01EC55FF4FE4918C
:10022000EE23B9F1222339F1233091F038F4213053
:10023000A9F0223001F584B58F7D12C0273091F0EE
:100240002830A1F02430B9F4809180008F7D03C064
:10025000809180008F77809380000DC084B58F7768
:1002600084BD09C08091B0008F7703C08091B00039
:100270008F7D8093B000F0E0EE0FFF1FE656FF4F3A
:10028000A591B4919FB7F8948C91309538233C9305
:100290009FBF08951F920F920FB60F9211242F93B4
:1002A0003F938F939F93AF93BF9380911801909149
:1002B0001901A0911A01B0911B013091170123E09F
:1002C000230F2D3720F40196A11DB11D05C026E88E
:1002D000230F0296A11DB11D2093170180931801D1
:1002E00090931901A0931A01B0931B0180911C01F6
:1002F00090911D01A0911E01B0911F010196A11DB9
:10030000B11D80931C0190931D01A0931E01B09319
:100310001F01BF91AF919F918F913F912F910F90AE
:100320000FBE0F901F9018951F920F920FB60F924D
:1003300011242F933F934F935F936F937F938F93EA
:100340009F93AF93BF93EF93FF9380910901909197
:100350000A01A0910B01B0910C01892B8A2B8B2BE8
:1003600051F190910401E0910501F0910601808125
:10037000892780838091090190910A01A0910B0146
:10038000B0910C01181619061A061B06C4F48091C8
:10039000090190910A01A0910B01B0910C01019704
:1003A000A109B1098093090190930A01A0930B015F
:1003B000B0930C0104C0809100010E94DB00FF910A
:1003C000EF91BF91AF919F918F917F916F915F91CD
:1003D0004F913F912F910F900FBE0F901F90189546
:1003E000CF93DF9300D000D01F92CDB7DEB77894C3
:1003F00084B5826084BD84B5816084BD85B582602A
:1004000085BD85B5816085BD80916E0081608093DA
:100410006E00109281008091810082608093810043
:100420008091810081608093810080918000816053
:10043000809380008091B10084608093B1008091AE
:10044000B00081608093B00080917A0084608093D6
:100450007A0080917A00826080937A0080917A009D
:10046000816080937A0080917A00806880937A001E
:100470001092C10018E4812E18EE912EAA24A394A4
:10048000B12C44244A94542C32011092160110923B
:1004900015018CED90E09093020180930101B9E881
:1004A0002B2EB0E03B2E07EA10E0809115019091D1
:1004B00016010C970CF0C7C1609101017091020107
:1004C000072E000C880B990B0E94C90420E53DE81B
:1004D00047E85FE30E942D050E9491046B017C01B7
:1004E000709302016093010180910001833021F03B
:1004F0008F3F09F08FC105C0E8EBF0E0F491FD8378
:100500006AC083E080930001E8EBF0E0F491FD83A2
:10051000FF3F09F47FC1F13009F43EC028F1F23009
:1005200009F059C01092B0001092B1008091B00053
:1005300082608093B0008091B10081608093B100AF
:10054000F8018491E82FF0E0EE0FFF1FE656FF4F11
:10055000859194919093060180930501F101849116
:1005600080930401F2E035C014BC15BC84B58260F0
:1005700084BD85B5816085BDF8018491E82FF0E0E8
:10058000EE0FFF1FE656FF4F85919491F101849184
:10059000809308011D8222C0109280001092810079
:1005A00080918100886080938100809181008160CA
:1005B00080938100F8018491E82FF0E0EE0FFF1F97
:1005C000E656FF4F85919491F10184918093070144
:1005D000F1E0FD8303C08D8187FD1CC1F1014491D1
:1005E000F8018491882399F090E0880F991FFC010D
:1005F000E458FF4FA591B491FC01E656FF4F2591B9
:1006000034918FB7F8949C91492B4C938FBFE12C78
:10061000F12C8D818D7F09F099C060E072E18AE74D
:1006200090E0A70196010E94C20529833A834B837B
:100630005C83BA01A90141505109610971094F3F19
:1006400051056105710509F008F445C060E472E4E4
:100650008FE090E0A70196010E94C205BA01A901AE
:100660004150510961097109FD81F230E9F44F3FB0
:1006700051056105710509F008F4EFC060E970EDFE
:1006800083E090E0A70196010E94C205BA01A9018A
:1006900041505109610971094F3F510561057105CB
:1006A00009F020F583E04BC04F3F5105610571050E
:1006B000A1F098F0C501B401A70196010E94C205FE
:1006C000BA01A90141505109610971098D8188233D
:1006D00009F4C5C01EC181E001C082E09D81911175
:1006E0002EC095B5987F892B85BD64C0C501B40126
:1006F000A70196010E94C205BA01A9014150510902
:10070000610971094F3F51056105710509F008F450
:10071000A2C064E274EF80E090E0A70196010E941D
:10072000C205BA01A90141505109610971094F3F40
:1007300051056105710511F008F0C2C085E0909186
:10074000B100987F892B8093B1002DC060E072E1E9
:100750008AE790E0A70196010E94C205BA01A901AB
:10076000415051096109710941155105E1E06E07D8
:10077000710570F0C501B401A70196010E94C20580
:10078000BA01A901415051096109710983E001C011
:1007900081E0FD81F13039F490918100987F892BBF
:1007A0008093810016C08D81813099F0823019F1DB
:1007B000811130C047BD40921101509212016092E8
:1007C00013017092140180916E00826080936E001C
:1007D00021C0509389004093880040920D015092AF
:1007E0000E0160920F017092100180916F00826083
:1007F00080936F000FC04093B30040920901509264
:100800000A0160920B0170920C018091700082606D
:10081000809370006CED75E080E090E00E94A10094
:1008200083E00E94DB0064EF71E080E090E00E94D2
:10083000A1008091150190911601019690931601E7
:100840008093150132CE80E090E0892B09F41DCE13
:100850000E9400001ACE84E072CF82E070CF4F3F3A
:1008600051056105710551F148F162E17AE780E0D7
:1008700090E0A70196010E94C205BA01A90141506A
:100880005109610971094F3F510561057105A1F0D9
:1008900098F089819A81AB81BC812AE0B595A795B2
:1008A000979587952A95D1F7AC01BD014150510923
:1008B0006109710985E015CF84E013CF83E011CF82
:1008C00062E17AE780E090E0A70196010E94C2050C
:1008D000BA01A90141505109610971094F3F510500
:1008E00061057105A1F098F089819A81AB81BC8185
:1008F0003AE0B595A795979587953A95D1F7AC01CC
:10090000BD01415051096109710987E018CF86E0A6
:1009100016CF4F3F51056105710509F088F684E057
:10092000DDCE0E9498046894B1110C9427050895B7
:100930000E940C0588F09F5798F0B92F9927B7515E
:10094000B0F0E1F0660F771F881F991F1AF0BA9573
:10095000C9F714C0B13091F00E942605B1E00895A6
:100960000C942605672F782F8827B85F39F0B93F98
:10097000CCF3869577956795B395D9F73EF4909526
:100980008095709561957F4F8F4F9F4F0895E894A4
:1009900009C097FB3EF490958095709561957F4FC7
:1009A0008F4F9F4F9923A9F0F92F96E9BB27939575
:1009B000F695879577956795B795F111F8CFFAF485
:1009C000BB0F11F460FF1BC06F5F7F4F8F4F9F4FB6
:1009D00016C0882311F096E911C0772321F09EE814
:1009E000872F762F05C0662371F096E8862F70E07A
:1009F00060E02AF09A95660F771F881FDAF7880F54
:100A00009695879597F9089557FD9058440F551F6F
:100A100059F05F3F71F04795880F97FB991F61F080
:100A20009F3F79F087950895121613061406551FF7
:100A3000F2CF4695F1DF08C0161617061806991F63
:100A4000F1CF86957105610508940895E894BB2758
:100A500066277727CB0197F908950E9440050C94EB
:100A6000B1050E94A30538F00E94AA0520F0952345
:100A700011F00C949A050C94A00511240C942705F0
:100A80000E94040570F3959FC1F3950F50E0551F28
:100A9000629FF001729FBB27F00DB11D639FAA27D3
:100AA000F00DB11DAA1F649F6627B00DA11D661F22
:100AB000829F2227B00DA11D621F739FB00DA11D43
:100AC000621F839FA00D611D221F749F3327A00DFD
:100AD000611D231F849F600D211D822F762F6A2F99
:100AE00011249F5750409AF0F1F088234AF0EE0FFE
:100AF000FF1FBB1F661F771F881F91505040A9F72B
:100B00009E3F510580F00C949A050C9427055F3F99
:100B1000E4F3983ED4F3869577956795B795F79566
:100B2000E7959F5FC1F7FE2B880F911D96958795DE
:100B300097F9089597F99F6780E870E060E008955D
:100B40009FEF80EC089500240A94161617061806E5
:100B50000906089500240A941216130614060506C1
:100B60000895092E0394000C11F4882352F0BB0F52
:100B700040F4BF2B11F460FF04C06F5F7F4F8F4FB5
:100B80009F4F0895052E97FB1EF400940E94D905EF
:100B900057FD07D00E94E10507FC03D04EF40C94EA
:100BA000D90550954095309521953F4F4F4F5F4F58
:100BB000089590958095709561957F4F8F4F9F4FC9
:100BC0000895A1E21A2EAA1BBB1BFD010DC0AA1F8E
:100BD000BB1FEE1FFF1FA217B307E407F50720F0A6
:100BE000A21BB30BE40BF50B661F771F881F991F21
:100BF0001A9469F760957095809590959B01AC016A
:0A0C0000BD01CF010895F894FFCF65
:040C0A00FFDC00000B
:107E0000112484B714BE81FFF0D085E080938100F7
:107E100082E08093C00088E18093C10086E0809377
:107E2000C20080E18093C4008EE0C9D0259A86E02C
:107E300020E33CEF91E0309385002093840096BBD3
:107E4000B09BFECF1D9AA8958150A9F7CC24DD24C4
:107E500088248394B5E0AB2EA1E19A2EF3E0BF2EE7
:107E6000A2D0813461F49FD0082FAFD0023811F036
:107E7000013811F484E001C083E08DD089C08234E0
:107E800011F484E103C0853419F485E0A6D080C0E4
:107E9000853579F488D0E82EFF2485D0082F10E0AE
:107EA000102F00270E291F29000F111F8ED06801E7
:107EB0006FC0863521F484E090D080E0DECF843638
:107EC00009F040C070D06FD0082F6DD080E0C81688
:107ED00080E7D80618F4F601B7BEE895C0E0D1E017
:107EE00062D089930C17E1F7F0E0CF16F0E7DF06D8
:107EF00018F0F601B7BEE89568D007B600FCFDCFD4
:107F0000A601A0E0B1E02C9130E011968C91119780
:107F100090E0982F8827822B932B1296FA010C0160
:107F200087BEE89511244E5F5F4FF1E0A038BF0790
:107F300051F7F601A7BEE89507B600FCFDCF97BE46
:107F4000E89526C08437B1F42ED02DD0F82E2BD052
:107F50003CD0F601EF2C8F010F5F1F4F84911BD097
:107F6000EA94F801C1F70894C11CD11CFA94CF0C13
:107F7000D11C0EC0853739F428D08EE10CD085E9AC
:107F80000AD08FE07ACF813511F488E018D01DD067
:107F900080E101D065CF982F8091C00085FFFCCF94
:107FA0009093C60008958091C00087FFFCCF809118
:107FB000C00084FD01C0A8958091C6000895E0E648
:107FC000F0E098E1908380830895EDDF803219F02E
:107FD00088E0F5DFFFCF84E1DECF1F93182FE3DFCA
:107FE0001150E9F7F2DF1F91089580E0E8DFEE27F6
:047FF000FF270994CA
:027FFE00040479
:0400000300007E007B
:00000001FF
