:100000000C948A000C94B2000C94B2000C94B200D0
:100010000C94B2000C94B2000C94B2000C94B20098
:100020000C94B2000C94B2000C94B2000C94B20088
:100030000C94B2000C94B2000C94B2000C94B20078
:100040000C94C0030C94B2000C947E040C945804DD
:100050000C94B2000C94B2000C94B2000C94B20058
:100060000C94B0040C94B20037094C094C094B09AC
:100070004C0929094C094C094C092B094C094C091C
:100080003E09490947094C094C094C0945093030DA
:100090003A31353A313200536570203233203230F4
:1000A000323000436F756C646E27742066696E642D
:1000B0002052544300000000080002010000030425
:1000C0000700000000000000001F1C1F1E1F1E1F55
:1000D0001F1E1F1E00000000250028002B0000002E
:1000E0000000240027002A0004040404040404047B
:1000F00002020202020203030303030301020408D3
:100100001020408001020408102001020408102081
:10011000110BF60A11241FBECFEFD8E0DEBFCDBF12
:1001200023E0A2ECB1E001C01D92AE39B207E1F7C5
:1001300011E0A0E0B1E0E8E9FCE102C005900D9219
:10014000A23CB107D9F710E0C9E8D0E004C021977C
:10015000FE010E943D0CC838D107C9F70E94200853
:100160000C943F0E0C94000008950895CF92DF92F6
:10017000EF92FF920F931F93CF93DF936C017A015D
:100180008B01C0E0D0E0CE15DF0581F0D8016D9184
:100190008D01D601ED91FC910190F081E02DC60119
:1001A0000995892B11F02196EECF7E01C701DF91D1
:1001B000CF911F910F91FF90EF90DF90CF90089516
:1001C000FC01538D448D252F30E0842F90E0821B5D
:1001D000930B541710F0CF96089501970895FC01E2
:1001E000918D828D981761F0828DDF01A80FB11D6E
:1001F0005D968C91928D9F5F9F73928F90E0089592
:100200008FEF9FEF0895FC01918D828D981731F04B
:10021000828DE80FF11D858D90E008958FEF9FEF9F
:100220000895FC01918D228D892F90E0805C9F4F75
:10023000821B91098F73992708958FE792E00E949E
:10024000110121E0892B09F420E0822F0895FC019F
:10025000848DDF01A80FB11DA35ABF4F2C91848D4F
:1002600090E001968F739927848FA689B7892C9384
:10027000A089B1898C91837080648C93938D848DD7
:10028000981306C00288F389E02D80818F7D8083DA
:100290000895EF92FF920F931F93CF93DF93EC019A
:1002A00081E0888F9B8D8C8D981305C0E889F98932
:1002B000808185FD26C0F62E0B8D10E00F5F1F4F4D
:1002C0000F731127E02E8C8DE8120CC00FB607FCBF
:1002D000FACFE889F989808185FFF5CFCE010E94A8
:1002E0002701F1CF8B8DFE01E80FF11DE35AFF4F7F
:1002F000F0829FB7F8940B8FEA89FB898081806236
:100300000AC09FB7F894EE89FF896083E889F9896C
:1003100080818370806480839FBF81E090E0DF9163
:10032000CF911F910F91FF90EF900895CF93DF939E
:10033000EC01888D8823C9F0EA89FB89808185FDDD
:1003400005C0A889B9898C9186FD0FC00FB607FC3E
:10035000F5CF808185FFF2CFA889B9898C9185FF7F
:10036000EDCFCE010E942701E7CFDF91CF91089515
:1003700080E090E0892B29F00E941D0181110C94EE
:1003800000000895FC01DB018C91808311968C9113
:100390001197818312968C911297828313968C9178
:1003A0001397838314968C911497848315968C915C
:1003B0008583089585ED8093BC008091BC0084FD09
:1003C000FCCF10925A0208954091E201262F30E0AE
:1003D000240F311D21323105DCF420915A022430E2
:1003E000C9F4FC0180E090E0861758F43091E201F6
:1003F0002191DC01AE53BE4FA30FB11D2C9301968A
:10040000F3CF8091E201680F6093E20180E00895EC
:1004100081E0089582E008950895E09113028091AB
:100420001202E81730F4F0E0EC5EFD4F808190E0BE
:1004300008958FEF9FEF089590911302809112021B
:10044000981750F4E92FF0E0EC5EFD4F208130E08A
:100450009F5F9093130202C02FEF3FEFC9010895F1
:100460008091120290E020911302821B910908955D
:10047000CF92DF92EF92FF920F931F93CF93DF9370
:100480007C01CB018A0120915B02222389F0EB01E0
:100490006B01C40ED51ECC15DD0569F06991D7013D
:1004A000ED91FC910190F081E02DC7010995F3CF0A
:1004B000642F0E94E401C801DF91CF911F910F9139
:1004C000FF90EF90DF90CF900895CF93DF931F922E
:1004D000CDB7DEB7698320915B022223D1F0209152
:1004E0007E02203240F021E030E0FC0133832283A1
:1004F00080E090E015C080915C02E82FF0E0E35AC4
:10050000FD4F998190838F5F80935C0280937E0280
:1005100005C061E0CE0101960E94E40181E090E017
:100520000F90DF91CF910895089580E090E00895B5
:100530001F93CF93DF93182FEB010E943107209771
:1005400011F460E004C0CF3FD10539F461E0812FA0
:10055000DF91CF911F910C94C607E12FF0E0EB548F
:10056000FF4FE491E330F9F048F4E130B9F0E230C4
:10057000A1F584B5806284BDC8BD34C0E730E9F020
:10058000E83019F1E43049F5809180008062809371
:100590008000D0938B00C0938A0024C084B580680B
:1005A00084BDC7BD1FC0809180008068809380009B
:1005B000D0938900C093880015C08091B0008068F6
:1005C0008093B000C093B3000DC08091B0008062F2
:1005D0008093B000C093B40005C0C038D1050CF0C2
:1005E000B5CFAFCFDF91CF911F9108950F931F9398
:1005F000CF93DF938B01EA01BC018DE00E9498024A
:10060000B8018AE00E949802BE0189E0DF91CF9193
:100610001F910F910C9498020E942A0ECF92DF92A4
:10062000EF92FF920F931F93CF93DF93EC0181E042
:1006300080935B0288E680937D0210925C021092A8
:100640007E0260E08CE193E00E9465020E94E30577
:1006500067E088E60E943F06109213028093120220
:100660008CE193E00E941C028F77982F92959F70E7
:100670001AEF082F919F000D11248CE193E00E9446
:100680001C029C01332794E0359527959A95E1F754
:10069000F82E129FF00C11248CE193E00E941C02B2
:1006A0009C01332744E0359527954A95E1F7E82EDC
:1006B000129FE00C11248CE193E00E941C028CE15B
:1006C00093E00E941C029C01332754E03595279546
:1006D0005A95E1F7D82E129FD00C11248CE193E0AB
:1006E0000E941C029C01332764E0359527956A958A
:1006F000E1F7C82E129FC00C11248CE193E00E94F8
:100700001C029C01332774E0359527957A95E1F713
:10071000129F800D11248883C982DA82EB82FC82C9
:100720000D83CE01DF91CF911F910F91FF90EF903C
:10073000DF90CF9008953FB7F89480910E0290918A
:100740000F02A0911002B091110226B5A89B05C01E
:100750002F3F19F00196A11DB11D3FBFBA2FA92F40
:10076000982F8827820F911DA11DB11DBC01CD01BD
:1007700042E0660F771F881F991F4A95D1F70895A9
:100780001F920F920FB60F9211242F933F938F93C6
:100790009F93AF93BF9380910A0290910B02A09117
:1007A0000C02B0910D023091090223E0230F2D3786
:1007B00020F40196A11DB11D05C026E8230F029665
:1007C000A11DB11D2093090280930A0290930B0290
:1007D000A0930C02B0930D0280910E0290910F0233
:1007E000A0911002B09111020196A11DB11D80933C
:1007F0000E0290930F02A0931002B0931102BF91CA
:10080000AF919F918F913F912F910F900FBE0F90BD
:100810001F901895EF92FF920F931F93CF93DF9342
:10082000EC01198218821B821A821D821C826115BA
:100830007105B9F17B01FB0101900020E9F73197C7
:100840008F01061B170BB8016F5F7F4F80E090E0B0
:100850000E94640D009759F0998388831B830A8353
:100860002C813D81232B81F4FC0110820DC08881F5
:100870009981009711F00E94DB0C198218821D8269
:100880001C821B821A820DC01D830C83B7018881D4
:100890009981DF91CF911F910F91FF90EF900C9470
:1008A000380EDF91CF911F910F91FF90EF90089537
:1008B0001F920F920FB60F9211242F933F934F93D5
:1008C0005F936F937F938F939F93AF93BF93EF93B8
:1008D000FF938FE792E00E942701FF91EF91BF9174
:1008E000AF919F918F917F916F915F914F913F91C8
:1008F0002F910F900FBE0F901F9018951F920F927F
:100900000FB60F9211242F938F939F93EF93FF9322
:10091000E0918F02F09190028081E0919502F09138
:10092000960282FD12C09081809198028F5F8F7332
:1009300020919902821751F0E0919802F0E0E1587D
:10094000FD4F958F8093980201C08081FF91EF91B8
:100950009F918F912F910F900FBE0F901F90189520
:100960001F920F920FB60F9211242F933F934F9324
:100970005F936F937F938F939F93AF93BF93EF9307
:10098000FF938091B900887F803609F49CC068F598
:10099000883209F45BC090F4803109F454C038F413
:1009A000882309F4F6C0883009F44DC0F6C08831B8
:1009B00009F44CC0803209F45DC0EFC0803409F402
:1009C00068C048F4803309F455C0883309F0E5C0A5
:1009D00080935802D8C0803509F44FC0883509F497
:1009E0005DC0883409F0D9C0D6C0883909F4C7C0C1
:1009F000A8F4883709F467C038F4883609F463C06E
:100A0000803709F460C0C9C0883809F4B8C080399B
:100A100009F45FC0803809F0C0C05BC0803B09F4B6
:100A200086C038F4803A09F466C0883A09F47FC079
:100A3000B4C0803C09F4A7C0883C09F4A4C0883B3A
:100A400009F48AC0AAC08091350210C09091570263
:100A500080915602981770F5E091570281E08E0F51
:100A600080935702F0E0EA5CFD4F80818093BB00E9
:100A700085EC86C0809358028EC0E091570281E0D9
:100A80008E0F809357028091BB00F0E0EA5CFD4F2F
:100A9000808390915702809156026EC0E091570278
:100AA00081E08E0F809357028091BB00F0E0EA5CFA
:100AB000FD4F80838091590281116DC081E0809348
:100AC000340284EA61C083E080935A0210920402E7
:100AD000CFCF80910402803208F051C0E09104022F
:100AE00081E08E0F809304028091BB00F0E0EC5116
:100AF000FE4F8083BDCF85EC8093BC0010925A02DC
:100B000080910402803230F4E0910402F0E0EC5174
:100B1000FE4F10826091040270E0E0910502F091B6
:100B2000060284EE91E009951092040236C084E03A
:100B300080935A021092E3011092E201E0910702C1
:100B4000F091080209958091E201811105C081E0D0
:100B50008093E2011092C201E091E30181E08E0FE7
:100B60008093E301F0E0EE53FE4F80818093BB0061
:100B70009091E3018091E201981708F479CF85E81C
:100B80008093BC000AC085EC8093BC0010925A028E
:100B900004C0109258020E94DA01FF91EF91BF91B8
:100BA000AF919F918F917F916F915F914F913F9105
:100BB0002F910F900FBE0F901F901895682F8FE701
:100BC00092E00C94490130917E02313208F04BC022
:100BD00080915A028111FCCF90917D0222E02093F6
:100BE0005A0221E0209359022FEF209358021092CD
:100BF000570230935602EDE5F2E0A6E3B2E020E0C2
:100C0000321721F041914D932F5FFACF10923502A8
:100C100020913502990F922B9093350290913402D6
:100C2000913061F410923402909135029093BB00A0
:100C30009091BC0093FDF8CF95EC01C095EE909398
:100C4000BC0090915A029230E1F3909158029F3F7C
:100C500079F080915802803241F0809158028033BF
:100C600031F084E005C081E003C082E001C083E090
:100C700010925C0210927E0210925B020895909195
:100C80005A029111FCCF91E090935A02909359022D
:100C90002FEF2093580210925702260F20935602EE
:100CA0009093350290913502880F892B80933502FD
:100CB00080913402813061F41092340280913502C7
:100CC0008093BB008091BC0083FDF8CF85EC01C010
:100CD00085EE8093BC0080915A028130E1F38091CF
:100CE0005702861710F460915702A6E3B2E0E4E1E0
:100CF000F2E080E0861721F09D9191938F5FFACF0B
:100D0000089581E080935B0288E680937D021092D3
:100D10005C0210927E026FE08CE193E00E9465021B
:100D20000E94E30561E088E60E943F0610921302EC
:100D3000809312028CE193E00E941C0208950097B8
:100D400069F0FC0101900020E9F73197AF01481BE1
:100D5000590BBC018FE792E00C94B60080E090E064
:100D600008958F929F92AF92BF920F931F93CF934C
:100D7000DF93CDB7DEB7A1970FB6F894DEBF0FBEF5
:100D8000CDBF19A2423008F44AE08E010F5D1F4F1B
:100D9000842E912CA12CB12CA50194010E941B0C36
:100DA000E62FB901CA0101501109EA3014F4E05DDF
:100DB00001C0E95CD801EC93232B242B252B61F790
:100DC000C8010E949F06A1960FB6F894DEBF0FBE21
:100DD000CDBFDF91CF911F910F91BF90AF909F90AA
:100DE0008F900895682F70E080E090E04AE00C94C6
:100DF000B1068F929F92AF92BF92CF92DF92EF9205
:100E0000FF920E949B034B015C0188EEC82E83E099
:100E1000D82EE12CF12C0E949B03DC01CB01881918
:100E20009909AA09BB09883E9340A105B10598F329
:100E300021E0C21AD108E108F10888EE880E83E0AB
:100E4000981EA11CB11CC114D104E104F10419F7CE
:100E5000FF90EF90DF90CF90BF90AF909F908F90DA
:100E6000089590E0FC01E450FF4F2491FC01E8510B
:100E7000FF4F8491882399F090E0880F991FFC011F
:100E8000E252FF4FA591B491FC01EC52FF4F8591C6
:100E900094918FB7F894EC91E22BEC938FBF089567
:100EA000CF93DF93EC01688170E06053784F072E99
:100EB000000C880B990B4AE00E94B1068FE20E9459
:100EC000DE0589810E94F2068FE20E94DE058A819A
:100ED0000E94F2068BEB91E00E949F066981988147
:100EE000492F50E02A8130E0E9ECF0E081E08617FC
:100EF00030F47491270F311D8F5F3196F8CF633036
:100F000020F0937011F42F5F3F4F6DE671E0469F24
:100F1000C001479F900D569F900D112405964D5F7F
:100F20005F4F5695479556954795840F951F820FAD
:100F3000931F67E070E00E94070C26E0289FF001F5
:100F4000299FF00D1124E059FC4F448155816081A7
:100F500071818FE792E00E94B6008EEB91E00E94D3
:100F60009F068B810E94F2068AE30E94DE058C8137
:100F70000E94F2068AE30E94DE058D810E94F2063D
:100F80008AE291E0DF91CF910C949F0690E0FC0102
:100F9000EB54FF4F2491FC01E450FF4F3491FC01CE
:100FA000E851FF4FE491EE2309F43CC0222339F1CC
:100FB000233091F038F42130A9F0223001F584B5C6
:100FC0008F7D12C0273091F02830A1F02430B9F481
:100FD000809180008F7D03C0809180008F77809307
:100FE00080000DC084B58F7784BD09C08091B000AA
:100FF0008F7703C08091B0008F7D8093B000F0E0C8
:10100000EE0FFF1FEC52FF4FA591B4919FB7F894DC
:10101000611104C08C913095382302C0EC913E2BB5
:101020003C939FBF0895FC01908190539A3008F043
:1010300090E0818180532AE0929F800D11240895D1
:10104000CF93DF93CDB7DEB761970FB6F894DEBFCD
:101050000FBECDBF789484B5826084BD84B58160B5
:1010600084BD85B5826085BD85B5816085BD809173
:101070006E00816080936E001092810080918100EB
:1010800082608093810080918100816080938100E3
:10109000809180008160809380008091B1008460A5
:1010A0008093B1008091B00081608093B000809106
:1010B0007A00846080937A0080917A0082608093C5
:1010C0007A0080917A00816080937A0080917A0022
:1010D000806880937A001092C1008DE00E943107F1
:1010E0008AE00E94310789E00E943107E0918F0277
:1010F000F091900282E08083E0918B02F0918C026B
:101100001082E0918D02F0918E028FEC808310921C
:101110009702E0919302F091940286E08083E0913F
:101120009102F0919202808180618083E09191022E
:10113000F0919202808188608083E0919102F09129
:101140009202808180688083E0919102F091920206
:1011500080818F7D80830E94F90610921302109285
:10116000120210925C0210927E0210925A0201E06A
:10117000009359021092340261E082E10E94C60796
:1011800061E083E10E94C6078091B9008E7F809361
:10119000B9008091B9008D7F8093B90088E4809375
:1011A000B80085E48093BC0084EB90E09093080243
:1011B0008093070285EB90E09093060280930502EE
:1011C00000935B0288E680937D0210925C0210928D
:1011D0007E020E94E3058823A9F003EA10E0F801EB
:1011E0006491611105C08AE291E00E949F0609C0E6
:1011F0008FE792E00E9449010F5F1F4F892B79F71B
:10120000F2CFFFCF0E94810690E0880F892F881FC0
:10121000990B892B09F4E0C04BE050E067E970E0DE
:10122000CE0101960E94BB0BCE010A960E941308C4
:10123000082FE9814E2FEE0F550B660B770BFA0145
:10124000E154F109E331F10538F5EC5CFF4F0C9402
:101250003D0C12E021C08A81813629F08B818E36C7
:1012600021F017E019C011E017C016E015C08B81FE
:10127000823711F018E010C014E00EC08B81823765
:1012800011F015E009C013E007C019E005C01AE02D
:1012900003C01BE001C01CE0CE0105960E941308AC
:1012A000C82E48E050E06EE870E0CE0101960E9442
:1012B000BB0BCE0101960E941308B82ECE010496F6
:1012C0000E941308A82ECE0107960E941308982E9C
:1012D000DD24D394D0925B0238E6E32EE0927D02C7
:1012E00010925C0210927E0260E08CE193E00E941A
:1012F00065024AE0F42E892D6F2D0E94FB0B682FAA
:10130000660F860F880F682F690D8CE193E00E94AD
:1013100065028A2D6F2D0E94FB0B682F660F860FCA
:10132000880F682F6A0D8CE193E00E9465028B2D77
:101330006F2D0E94FB0B682F660F860F880F682F9A
:101340006B0D8CE193E00E94650260E08CE193E01C
:101350000E9465028C2D6F2D0E94FB0B682F660F7B
:10136000860F880F682F6C0D8CE193E00E94650258
:10137000812F6F2D0E94FB0B682F660F680F660F81
:10138000610F8CE193E00E946502802F6F2D0E9417
:10139000FB0B682F660F680F660F600F8CE193E000
:1013A0000E9465020E94E3050E948106182FD092D8
:1013B0005B02E0927D0210925C0210927E026FE06E
:1013C0008CE193E00E946502612F6F778CE193E0DE
:1013D0000E9465020E94E305CE010C960E940E0356
:1013E000BE01645F7F4FCE0101960E94C201CE0113
:1013F00001960E94500740E050E060E070E08FEFFF
:1014000090E00E94F6020E94F906CE0101960E9429
:101410000E0386E0FE013196DE011C9601900D92CE
:101420008A95E1F7BE01645F7F4FCE0101960E946D
:10143000C201CE0101960E94500740E050E06FEFDC
:1014400070E080E090E00E94F6020E94F906CE0172
:1014500001960E940E0386E0FE013196DE011C9685
:1014600001900D928A95E1F7BE01645F7F4FCE0136
:1014700001960E94C201CE0101960E9450074FEFD3
:1014800050E060E070E080E090E00E94F6020E9490
:10149000F906CE0101960E940E0386E0FE01319608
:1014A000DE011C9601900D928A95E1F7BE01645F02
:1014B0007F4FCE0101960E94C201CE0101960E948B
:1014C00050074FEF50E06FEF70E08FEF90E00E9419
:1014D000F6020E94F906CE0101960E940E0386E0F4
:1014E000FE013196DE011C9601900D928A95E1F77E
:1014F000BE01645F7F4FCE0101960E94C201CE0102
:1015000001960E94500740E050E06FEF70E08FEFCF
:1015100090E00E94F6020E94F906CE0101960E9418
:101520000E0386E0FE013196DE011C9601900D92BD
:101530008A95E1F7BE01645F7F4FCE0101960E945C
:10154000C201CE0101960E9450074FEF50E060E0CB
:1015500070E08FEF90E00E94F6020E94F906CE0143
:1015600001960E940E0386E0FE013196DE011C9674
:1015700001900D928A95E1F7BE01645F7F4FCE0125
:1015800001960E94C201CE0101960E9450074FEFC2
:1015900050E06FEF70E080E090E00E94F6020E9461
:1015A000F906CE0101960E940E0386E0FE013196F7
:1015B000DE011C9601900D928A95E1F7BE01645FF1
:1015C0007F4FCE0101960E94C201CE0101960E947A
:1015D000500740E050E060E070E080E090E00E9462
:1015E000F6020E94F9060E94B801F6CECF93DF936F
:1015F000C0E7D3E02697888199810E94DB0C83E0C5
:10160000C832D807B9F7CAE9D3E02697888199810B
:101610000E94DB0C83E0C037D807B9F7DF91CF9188
:101620000895EFE7F2E01382128288EE93E0A0E0E3
:10163000B0E084839583A683B7832AE031E03183C9
:10164000208325EC30E03587248724EC30E0378791
:10165000268720EC30E0318B208B21EC30E0338B7F
:10166000228B22EC30E0358B248B26EC30E0378B5C
:10167000268B118E128E138E148EECE1F3E0138202
:10168000128284839583A683B7838CE191E0918352
:1016900080836DE271E080E793E00E940A0465E3D5
:1016A00071E086E793E00E940A046BE371E08CE747
:1016B00093E00E940A0462E471E082E893E00E94F1
:1016C0000A046CE471E088E893E00E940A0463E590
:1016D00071E08EE893E00E940A046BE571E084E912
:1016E00093E00E940A0462E671E088E293E00E94BF
:1016F0000A0468E671E08EE293E00E940A0460E763
:1017000071E084E393E00E940A0466E771E08AE3F3
:1017100093E00E940A046CE771E080E493E00E9489
:101720000A0461E871E086E493E00E940A0467E835
:1017300071E08CE493E00E940A046DE871E082E5B8
:1017400093E00E940A0464E971E088E593E00E9456
:101750000A046FE971E08EE593E00E940A0467EAEB
:1017600071E084E693E00E940A0461EB71E08AE68E
:1017700093E00C940A04FB01DC0102C005900D9279
:1017800041505040D8F708952F923F924F925F9268
:101790006F927F928F929F92AF92BF92CF92DF9281
:1017A000EF92FF920F931F93CF93DF93CDB7DEB7E6
:1017B000CA1BDB0B0FB6F894DEBF0FBECDBF09947A
:1017C0002A88398848885F846E847D848C849B84D1
:1017D000AA84B984C884DF80EE80FD800C811B81DF
:1017E000AA81B981CE0FD11D0FB6F894DEBF0FBE0E
:1017F000CDBFED010895991B79E004C0991F96179C
:1018000008F0961B881F7A95C9F780950895AA1B42
:10181000BB1B51E107C0AA1FBB1FA617B70710F0DB
:10182000A61BB70B881F991F5A95A9F7809590950D
:10183000BC01CD010895A1E21A2EAA1BBB1BFD011C
:101840000DC0AA1FBB1FEE1FFF1FA217B307E4079F
:10185000F50720F0A21BB30BE40BF50B661F771FF7
:10186000881F991F1A9469F76095709580959095D7
:101870009B01AC01BD01CF010895EE0FFF1F059044
:10188000F491E02D09940F931F93CF93DF9382304F
:10189000910510F482E090E0E0919C03F0919D03AB
:1018A00020E030E0A0E0B0E0309719F140815181B4
:1018B0000281138148175907C8F08417950769F406
:1018C000109731F012960C93129713961C9327C021
:1018D00000939C0310939D0322C02115310519F03C
:1018E0004217530718F49A01BD01EF01DF01F80117
:1018F000DBCF21153105F9F0281B390B24303105D8
:1019000080F48A819B816115710521F0FB0193832D
:10191000828304C090939D0380939C03FE013296C2
:1019200044C0FE01E20FF31F8193919322503109CD
:10193000398328833AC020919A0330919B03232B4B
:1019400041F4209102013091030130939B032093D5
:101950009A0320910001309101012115310541F4D4
:101960002DB73EB74091040150910501241B350B62
:10197000E0919A03F0919B03E217F307A0F42E1B6A
:101980003F0B2817390778F0AC014E5F5F4F2417E3
:10199000350748F04E0F5F1F50939B0340939A0307
:1019A0008193919302C0E0E0F0E0CF01DF91CF910D
:1019B0001F910F910895CF93DF93009709F481C091
:1019C000FC01329713821282A0919C03B0919D0377
:1019D000109781F420813181820F931F20919A0307
:1019E00030919B032817390751F5F0939B03E0933F
:1019F0009A0367C0ED0120E030E0CE17DF0740F426
:101A00004A815B819E0141155105F1F0EA01F5CF54
:101A1000D383C28340815181840F951FC817D90792
:101A200059F488819981840F951F02969183808350
:101A30008A819B81938382832115310529F4F09358
:101A40009D03E0939C033DC0E901FB83EA83499138
:101A50005991C40FD51FEC17FD0761F48081918166
:101A6000840F951F0296E90199838883828193816F
:101A70009B838A83E0E0F0E012968D919C9113970E
:101A8000009719F0FD01DC01F7CF8D919C91119722
:101A90009D012E5F3F4F820F931F20919A0330913B
:101AA0009B032817390769F4309729F410929D0396
:101AB00010929C0302C013821282B0939B03A093E6
:101AC0009A03DF91CF910895A0E0B0E0EAE6FDE04F
:101AD0000C94C80BEC01009721F4CB010E94430C3D
:101AE000B4C0FC01E60FF71F9C0122503109E21738
:101AF000F30708F4A8C0D9010D911C91119706179E
:101B00001707B0F00530110508F49BC0C801049711
:101B10008617970708F495C002501109061B170B8A
:101B2000019311936D937C93CF010E94DB0C89C0CC
:101B30005B01A01AB10A4C01800E911EA0919C037A
:101B4000B0919D03612C712CE12CF12C109709F4BC
:101B500046C08D919C911197A815B905B1F56C01FE
:101B600042E0C40ED11CCA14DB0478F14C018A187F
:101B70009B08640142E0C40ED11C1296BC901297DF
:101B80001396AC91B5E0CB16D10440F0B282A3839A
:101B900091828082D9016D937C9309C00E5F1F4FA3
:101BA000800F911FF90191838083EB2DFA2FE114AF
:101BB000F10431F0D7011396FC93EE93129741C0D4
:101BC000F0939D03E0939C033CC06816790608F4EB
:101BD0003C017D0112960D90BC91A02DB7CF809154
:101BE0009A0390919B0388169906E1F4661677068E
:101BF000C8F48091000190910101009741F48DB7E4
:101C00009EB74091040150910501841B950BE81784
:101C1000F907C8F4F0939B03E0939A03F9017183E9
:101C200060830FC0CB010E94430C7C01009759F0E8
:101C3000A801BE010E942F0ECE010E94DB0CC7013D
:101C400004C0CE0102C080E090E0CDB7DEB7EEE088
:101C50000C94E40B81E090E0F8940C943F0EFB01AF
:101C6000DC0102C001900D9241505040D8F7089518
:101C7000FB01DC0101900D920020E1F7089510E0D6
:101C8000C9E8D0E004C0FE010E943D0C2196CA388C
:081C9000D107C9F7F894FFCF5A
:101C980000009E038000000000004901B600E0003B
:101CA80096011101EF0003010000000065023802EF
:101CB80095020C0230021C020D020D0A00446F6DE1
:101CC800696E676F004C756E6573004D617274655F
:101CD80073004D696572636F6C6573004A7565764C
:101CE800657300566965726E65730053616261645D
:101CF8006F00456E65726F004665627265726F00AF
:101D08004D61727A6F00416272696C004D61796F42
:101D1800004A756E696F004A756C696F0041676F9C
:101D280073746F005365707469656D627265004FF6
:101D3800637475627265004E6F7669656D6272656F
:101D48000044696369656D62726500202800292076
:021D5800000089
:00000001FF
