:100000000C9485000C94AD000C94AD000C94AD00E4
:100010000C94AD000C94AD000C94AD000C94AD00AC
:100020000C94AD000C94AD000C94AD000C94AD009C
:100030000C94AD000C94AD000C94AD000C94AD008C
:100040000C9411060C94AD000C94F1020C94CB02AC
:100050000C94AD000C94AD000C94AD000C94AD006C
:100060000C9423030C94AD0078078D078D078C0743
:100070008D076A078D078D078D076C078D078D0724
:100080007F078A0788078D078D078D078607313917
:100090003A35363A303600536570203231203230EE
:1000A000323000436F756C646E27742066696E642D
:1000B00020525443001F1C1F1E1F1E1F1F1E1F1EE9
:1000C00000000000250028002B00040404040404A0
:1000D00004040202020202020303030303030102F7
:1000E00004081020408001020408102001020408C6
:1000F00010200000000800020100000304070000B7
:100100000000000000004209270911241FBECFEFA4
:10011000D8E0DEBFCDBF23E0A2ECB1E001C01D926C
:10012000AE39B207E1F711E0A0E0B1E0EAEFF8E1A3
:1001300002C005900D92A23CB107D9F710E0C4E8C7
:10014000D0E004C02197FE010E946E0AC338D10797
:10015000C9F70E9468060C94700C0C940000089576
:100160000895CF92DF92EF92FF920F931F93CF9358
:10017000DF936C017A018B01C0E0D0E0CE15DF0582
:1001800081F0D8016D918D01D601ED91FC91019026
:10019000F081E02DC6010995892B11F02196EECF53
:1001A0007E01C701DF91CF911F910F91FF90EF90DA
:1001B000DF90CF900895FC01538D448D252F30E0C2
:1001C000842F90E0821B930B541710F0CF96089564
:1001D00001970895FC01918D828D981761F0828DB1
:1001E000DF01A80FB11D5D968C91928D9F5F9F736B
:1001F000928F90E008958FEF9FEF0895FC01918D0D
:10020000828D981731F0828DE80FF11D858D90E079
:1002100008958FEF9FEF0895FC01918D228D892F16
:1002200090E0805C9F4F821B91098F7399270895FE
:1002300086E792E00E940C0121E0892B09F420E07E
:10024000822F0895FC01848DDF01A80FB11DA35AF0
:10025000BF4F2C91848D90E001968F739927848FE6
:10026000A689B7892C93A089B1898C918370806409
:100270008C93938D848D981306C00288F389E02DAA
:1002800080818F7D80830895EF92FF920F931F935B
:10029000CF93DF93EC0181E0888F9B8D8C8D981339
:1002A00005C0E889F989808185FD26C0F62E0B8D71
:1002B00010E00F5F1F4F0F731127E02E8C8DE81297
:1002C0000CC00FB607FCFACFE889F989808185FF59
:1002D000F5CFCE010E942201F1CF8B8DFE01E80FF8
:1002E000F11DE35AFF4FF0829FB7F8940B8FEA8914
:1002F000FB89808180620AC09FB7F894EE89FF89EC
:100300006083E889F98980818370806480839FBFDE
:1003100081E090E0DF91CF911F910F91FF90EF90DE
:100320000895CF93DF93EC01888D8823C9F0EA8983
:10033000FB89808185FD05C0A889B9898C9186FDDE
:100340000FC00FB607FCF5CF808185FFF2CFA889DB
:10035000B9898C9185FFEDCFCE010E942201E7CFB4
:10036000DF91CF91089580E090E0892B29F00E94E1
:10037000180181110C940000089585ED8093BC0054
:100380008091BC0084FDFCCF1092510208954091F1
:10039000E201262F30E0240F311D21323105DCF43B
:1003A000209151022430C9F4FC0180E090E08617CE
:1003B00058F43091E2012191DC01AE53BE4FA30FFE
:1003C000B11D2C930196F3CF8091E201680F6093E9
:1003D000E20180E0089581E0089582E008950895A3
:1003E000E0910A0280910902E81730F4F0E0E55F3D
:1003F000FD4F808190E008958FEF9FEF08959091D9
:100400000A0280910902981750F4E92FF0E0E55FA5
:10041000FD4F208130E09F5F90930A0202C02FEFD2
:100420003FEFC90108958091090290E020910A02EE
:10043000821B91090895CF92DF92EF92FF920F9362
:100440001F93CF93DF937C01CB018A01209152024D
:10045000222389F0EB016B01C40ED51ECC15DD05FE
:1004600069F06991D701ED91FC910190F081E02D47
:10047000C7010995F3CF642F0E94C701C801DF911E
:10048000CF911F910F91FF90EF90DF90CF90089543
:10049000CF93DF931F92CDB7DEB7698320915202CD
:1004A0002223D1F020917502203240F021E030E08B
:1004B000FC013383228380E090E015C080915302D9
:1004C000E82FF0E0EC5AFD4F998190838F5F809385
:1004D00053028093750205C061E0CE0101960E942F
:1004E000C70181E090E00F90DF91CF9108950895CA
:1004F00080E090E008950E945B0CEF92FF920F93D2
:100500001F93CF93DF93EC01198218821B821A820A
:100510001D821C8261157105B9F17B01FB010190FF
:100520000020E9F731978F01061B170BB8016F5FA9
:100530007F4F80E090E00E94950B009759F09983DF
:1005400088831B830A832C813D81232B81F4FC014A
:1005500010820DC088819981009711F00E940C0BC8
:10056000198218821D821C821B821A820DC01D8373
:100570000C83B70188819981DF91CF911F910F91F1
:10058000FF90EF900C94690CDF91CF911F910F9128
:10059000FF90EF9008951F920F920FB60F921124C3
:1005A0002F933F934F935F936F937F938F939F937B
:1005B000AF93BF93EF93FF9386E792E00E942201EF
:1005C000FF91EF91BF91AF919F918F917F916F912B
:1005D0005F914F913F912F910F900FBE0F901F9001
:1005E00018951F920F920FB60F9211242F938F938D
:1005F0009F93EF93FF93E0918602F09187028081B1
:10060000E0918C02F0918D0282FD12C09081809168
:100610008F028F5F8F7320919002821751F0E091CB
:100620008F02F0E0EA58FD4F958F80938F0201C052
:100630008081FF91EF919F918F912F910F900FBE2D
:100640000F901F9018951F920F920FB60F921124C2
:100650002F933F934F935F936F937F938F939F93CA
:10066000AF93BF93EF93FF938091B900887F80365B
:1006700009F49CC068F5883209F45BC090F48031BD
:1006800009F454C038F4882309F4F6C0883009F41A
:100690004DC0F6C0883109F44CC0803209F45DC009
:1006A000EFC0803409F468C048F4803309F455C0C1
:1006B000883309F0E5C080934F02D8C0803509F433
:1006C0004FC0883509F45DC0883409F0D9C0D6C060
:1006D000883909F4C7C0A8F4883709F467C038F42A
:1006E000883609F463C0803709F460C0C9C088380F
:1006F00009F4B8C0803909F45FC0803809F0C0C07F
:100700005BC0803B09F486C038F4803A09F466C0C7
:10071000883A09F47FC0B4C0803C09F4A7C0883C83
:1007200009F4A4C0883B09F48AC0AAC080912C02B5
:1007300010C090914E0280914D02981770F5E09193
:100740004E0281E08E0F80934E02F0E0E35DFD4F9C
:1007500080818093BB0085EC86C080934F028EC061
:10076000E0914E0281E08E0F80934E028091BB009B
:10077000F0E0E35DFD4F808390914E0280914D0249
:100780006EC0E0914E0281E08E0F80934E02809108
:10079000BB00F0E0E35DFD4F80838091500281114A
:1007A0006DC081E080932B0284EA61C083E0809376
:1007B000510210920402CFCF80910402803208F0DF
:1007C00051C0E091040281E08E0F80930402809179
:1007D000BB00F0E0EC51FE4F8083BDCF85EC8093F1
:1007E000BC001092510280910402803230F4E091FA
:1007F0000402F0E0EC51FE4F10826091040270E0C0
:10080000E0910502F091060284EE91E009951092C4
:10081000040236C084E0809351021092E3011092EA
:10082000E201E0910702F091080209958091E2014E
:10083000811105C081E08093E2011092C201E09134
:10084000E30181E08E0F8093E301F0E0EE53FE4F71
:1008500080818093BB009091E3018091E201981721
:1008600008F479CF85E88093BC000AC085EC8093BA
:10087000BC001092510204C010924F020E94BD01B0
:10088000FF91EF91BF91AF919F918F917F916F9168
:100890005F914F913F912F910F900FBE0F901F903E
:1008A00018953FB7F8948091960390919703A09183
:1008B0009803B091990326B5A89B05C02F3F19F066
:1008C0000196A11DB11D3FBFBA2FA92F982F8827D0
:1008D000820F911DA11DB11DBC01CD0142E0660F2B
:1008E000771F881F991F4A95D1F708953091750297
:1008F000313208F04BC0809151028111FCCF9091B0
:10090000740222E02093510221E0209350022FEF45
:1009100020934F0210924E0230934D02E4E5F2E034
:10092000ADE2B2E020E0321721F041914D932F5F0C
:10093000FACF10922C0220912C02990F922B9093B7
:100940002C0290912B02913061F410922B02909125
:100950002C029093BB009091BC0093FDF8CF95ECD6
:1009600001C095EE9093BC00909151029230E1F35A
:1009700090914F029F3F79F080914F02803241F079
:1009800080914F02803331F084E005C081E003C0E4
:1009900082E001C083E0109253021092750210921F
:1009A00052020895909151029111FCCF91E09093E1
:1009B0005102909350022FEF20934F0210924E025B
:1009C000260F20934D0290932C0290912C02880FB9
:1009D000892B80932C0280912B02813061F410923C
:1009E0002B0280912C028093BB008091BC0083FD80
:1009F000F8CF85EC01C085EE8093BC008091510258
:100A00008130E1F380914E02861710F460914E021E
:100A1000ADE2B2E0EBE0F2E080E0861721F09D91DC
:100A200091938F5FFACF089581E08093520288E618
:100A30008093740210925302109275026FE083E16A
:100A400093E00E9448020E94760461E088E60E94DA
:100A5000D20410920A028093090283E193E00E947B
:100A6000FF010895009769F0FC0101900020E9F76B
:100A70003197AF01481B590BBC0186E792E00C94FB
:100A8000B10080E090E0089590E0FC01EE50FF4F4F
:100A90002491FC01E252FF4F3491FC01E653FF4FD9
:100AA000E491EE23B1F1222339F1233091F038F4AF
:100AB0002130A9F0223001F584B58F7D12C0273096
:100AC00091F02830A1F02430B9F4809180008F7D1E
:100AD00003C0809180008F77809380000DC084B523
:100AE0008F7784BD09C08091B0008F7703C080915B
:100AF000B0008F7D8093B000F0E0EE0FFF1FE05458
:100B0000FF4FA591B4918FB7F894EC91E32BEC9340
:100B10008FBF08958F929F92AF92BF920F931F93B2
:100B2000CF93DF93CDB7DEB7A1970FB6F894DEBFB2
:100B30000FBECDBF19A2423008F44AE08E010F5D0E
:100B40001F4F842E912CA12CB12CA50194010E9441
:100B50004C0AE62FB901CA0101501109EA3014F418
:100B6000E05D01C0E95CD801EC93232B242B252BFD
:100B700061F7C8010E943205A1960FB6F894DEBF56
:100B80000FBECDBFDF91CF911F910F91BF90AF905E
:100B90009F908F900895682F70E080E090E04AE089
:100BA0000C948A05682F86E792E00C9444018F929A
:100BB0009F92AF92BF92CF92DF92EF92FF926B0122
:100BC0007C010E9451044B015C01C114D104E10479
:100BD000F104F1F00E945104DC01CB01881999095C
:100BE000AA09BB09883E9340A105B10570F321E035
:100BF000C21AD108E108F10888EE880E83E0981E39
:100C0000A11CB11CC114D104E104F10419F7DDCF1A
:100C1000FF90EF90DF90CF90BF90AF909F908F901C
:100C200008951F920F920FB60F9211242F933F93A6
:100C30008F939F93AF93BF9380919203909193036F
:100C4000A0919403B09195033091910323E0230F79
:100C50002D3720F40196A11DB11D05C026E8230FF4
:100C60000296A11DB11D209391038093920390934E
:100C70009303A0939403B09395038091960390916E
:100C80009703A0919803B09199030196A11DB11DFE
:100C90008093960390939703A0939803B09399033E
:100CA000BF91AF919F918F913F912F910F900FBE68
:100CB0000F901F901895FC01908190539A3008F086
:100CC00090E0818180532AE0929F800D1124089545
:100CD000CF93DF93CDB7DEB72B970FB6F894DEBF77
:100CE0000FBECDBF789484B5826084BD84B5816029
:100CF00084BD85B5826085BD85B5816085BD8091E7
:100D00006E00816080936E0010928100809181005E
:100D10008260809381008091810081608093810056
:100D2000809180008160809380008091B100846018
:100D30008093B1008091B00081608093B000809179
:100D40007A00846080937A0080917A008260809338
:100D50007A0080917A00816080937A0080917A0095
:100D6000806880937A001092C100E0918602F09131
:100D7000870282E08083E0918202F09183021082F8
:100D8000E0918402F09185028FEC808310928E02B4
:100D9000E0918A02F0918B0286E08083E0918802E4
:100DA000F0918902808180618083E0918802F091D6
:100DB0008902808188608083E0918802F0918902B5
:100DC000808180688083E0918802F091890280812F
:100DD0008F7D808368EE73E080E090E00E94D7050D
:100DE00010920A0210920902109253021092750298
:100DF0001092510201E00093500210922B0282E106
:100E00000E94440583E10E9444058091B9008E7FD1
:100E10008093B9008091B9008D7F8093B90088E4F8
:100E20008093B80085E48093BC008FEA90E09093B3
:100E300008028093070280EB90E090930602809373
:100E400005020093520288E68093740210925302C6
:100E5000109275020E9476048823A9F003EA10E03C
:100E6000F8016491611105C08AE291E00E943205A7
:100E700009C086E792E00E9444010F5F1F4F892B53
:100E800079F7F2CFFFCF0E94140590E0880F892FE9
:100E9000881F990B892B09F4E0C04BE050E067E90B
:100EA00070E0CE0101960E94EC09CE010A960E94E4
:100EB0005B06082FE9814E2FEE0F550B660B770B63
:100EC000FA01E154F109E331F10538F5EC5CFF4F2B
:100ED0000C946E0A12E021C08A81813629F08B8140
:100EE0008E3621F017E019C011E017C016E015C0CA
:100EF0008B81823711F018E010C014E00EC08B8196
:100F0000823711F015E009C013E007C019E005C0F1
:100F10001AE003C01BE001C01CE0CE0105960E9450
:100F20005B06C82E48E050E06EE870E0CE01019606
:100F30000E94EC09CE0101960E945B06B82ECE01FC
:100F400004960E945B06A82ECE0107960E945B06BF
:100F5000982EDD24D394D092520288E6E82EE092B7
:100F60007402109253021092750260E083E193E0E4
:100F70000E9448029AE0F92E892D6F2D0E942C0ABA
:100F8000682F660F860F880F682F690D83E193E045
:100F90000E9448028A2D6F2D0E942C0A682F660F2E
:100FA000860F880F682F6A0D83E193E00E94480244
:100FB0008B2D6F2D0E942C0A682F660F860F880FCD
:100FC000682F6B0D83E193E00E94480260E083E1AB
:100FD00093E00E9448028C2D6F2D0E942C0A682FEE
:100FE000660F860F880F682F6C0D83E193E00E94D7
:100FF0004802812F6F2D0E942C0A682F660F680F00
:10100000660F610F83E193E00E944802802F6F2DED
:101010000E942C0A682F660F680F660F600F83E12D
:1010200093E00E9448020E9476040E941405182F43
:10103000D0925202E0927402109253021092750202
:101040006FE083E193E00E944802612F6F7783E1B4
:1010500093E00E9448020E94760433243394A8E669
:101060002A2E0AEFBDE68B2E9924939417E0A12E29
:10107000B12C3092520220927402109253021092BC
:10108000750260E083E193E00E9448020E947604CA
:1010900067E088E60E94D20410920A028093090257
:1010A00083E193E00E94FF018F77982F92959F70C4
:1010B000682E909F600C112483E193E00E94FF0151
:1010C0009C01332754E0359527955A95E1F7582E22
:1010D000029F500C112483E193E00E94FF019C01C8
:1010E000332764E0359527956A95E1F7482E029FEE
:1010F000400C112483E193E00E94FF0183E193E01F
:101100000E94FF019C01332774E0359527957A955D
:10111000E1F7182F029F100D112483E193E00E9444
:10112000FF019C013327E4E035952795EA95E1F727
:10113000782E029F700C112483E193E00E94FF013E
:101140009C013327F4E035952795FA95E1F7029F46
:10115000800D1124E82EF12C6701F0E3CF1AF8EF8F
:10116000DF0AB6010D2C000C880B990B4AE00E9497
:101170008A058FE20E94D205872D0E94CB058FE25F
:101180000E94D205812F0E94CB058DE291E00E9442
:101190003205212F30E0E5EBF0E081E0871530F4F7
:1011A0009491290F311D8F5F3196F8CF82E087151A
:1011B00038F4C70183709927892B11F42F5F3F4FB3
:1011C000EDECCE1AE7E0DE0AD694C794D694C79425
:1011D000E89CC001E99C900DF89C900D11248C0DA9
:1011E0009D1D0596820F931FB5010E94380A26E0C7
:1011F000289FF001299FF00D1124E959FC4F4481EB
:1012000055816081718186E792E00E94B10080E3A0
:1012100091E00E943205842D0E94CB058AE30E9452
:10122000D205852D0E94CB058AE30E94D205862D2A
:101230000E94CB058AE291E00E94320568EB7BE0D8
:1012400080E090E00E94D7050E94B30112CFCF93B7
:10125000DF93C7E6D3E02697888199810E940C0B23
:1012600083E0CF31D807B9F7C1E9D3E02697888169
:1012700099810E940C0B83E0C736D807B9F7DF913C
:10128000CF910895E6E7F2E01382128288EE93E0B0
:10129000A0E0B0E084839583A683B7832AE031E0A1
:1012A0003183208325EC30E03587248724EC30E03F
:1012B0003787268720EC30E0318B208B21EC30E023
:1012C000338B228B22EC30E0358B248B26EC30E004
:1012D000378B268B118E128E138E148EE3E1F3E082
:1012E0001382128284839583A683B7838CE191E075
:1012F0009183808363E371E087E693E00E947D023F
:101300006BE371E08DE693E00E947D0261E471E0A1
:1013100083E793E00E947D0268E471E089E793E04F
:101320000E947D0262E571E08FE793E00E947D02FA
:1013300069E571E085E893E00E947D0261E671E075
:101340008BE893E00E947D0268E671E08FE193E014
:101350000E947D026EE671E085E293E00E947D02CC
:1013600066E771E08BE293E00E947D026CE771E03A
:1013700081E393E00E947D0262E871E087E393E0FD
:101380000E947D0267E871E08DE393E00E947D0298
:101390006DE871E083E493E00E947D0263E971E00F
:1013A00089E493E00E947D026AE971E08FE493E0B2
:1013B0000E947D0265EA71E085E593E00E947D026E
:1013C0006DEA71E08BE593E00E947D0267EB71E0CE
:1013D00081E693E00C947D02FB01DC0102C00590E4
:1013E0000D9241505040D8F708952F923F924F925E
:1013F0005F926F927F928F929F92AF92BF92CF92A5
:10140000DF92EF92FF920F931F93CF93DF93CDB7AD
:10141000DEB7CA1BDB0B0FB6F894DEBF0FBECDBF25
:1014200009942A88398848885F846E847D848C84F6
:101430009B84AA84B984C884DF80EE80FD800C81FF
:101440001B81AA81B981CE0FD11D0FB6F894DEBFE2
:101450000FBECDBFED010895991B79E004C0991F1F
:10146000961708F0961B881F7A95C9F780950895FE
:10147000AA1BBB1B51E107C0AA1FBB1FA617B707BA
:1014800010F0A61BB70B881F991F5A95A9F78095D6
:101490009095BC01CD010895A1E21A2EAA1BBB1B99
:1014A000FD010DC0AA1FBB1FEE1FFF1FA217B30730
:1014B000E407F50720F0A21BB30BE40BF50B661F46
:1014C000771F881F991F1A9469F76095709580950A
:1014D00090959B01AC01BD01CF010895EE0FFF1F58
:1014E0000590F491E02D09940F931F93CF93DF9310
:1014F0008230910510F482E090E0E0919C03F0913D
:101500009D0320E030E0A0E0B0E0309719F1408189
:1015100051810281138148175907C8F08417950734
:1015200069F4109731F012960C93129713961C934E
:1015300027C000939C0310939D0322C02115310501
:1015400019F04217530718F49A01BD01EF01DF01AA
:10155000F801DBCF21153105F9F0281B390B2430B8
:10156000310580F48A819B816115710521F0FB01B1
:101570009383828304C090939D0380939C03FE0118
:10158000329644C0FE01E20FF31F819391932250E3
:101590003109398328833AC020919A0330919B0303
:1015A000232B41F4209102013091030130939B03DE
:1015B00020939A03209100013091010121153105FA
:1015C00041F42DB73EB74091040150910501241B11
:1015D000350BE0919A03F0919B03E217F307A0F417
:1015E0002E1B3F0B2817390778F0AC014E5F5F4F79
:1015F0002417350748F04E0F5F1F50939B0340930D
:101600009A038193919302C0E0E0F0E0CF01DF9173
:10161000CF911F910F910895CF93DF93009709F415
:1016200081C0FC01329713821282A0919C03B09179
:101630009D03109781F420813181820F931F2091A7
:101640009A0330919B032817390751F5F0939B03B8
:10165000E0939A0367C0ED0120E030E0CE17DF078A
:1016600040F44A815B819E0141155105F1F0EA0188
:10167000F5CFD383C28340815181840F951FC81752
:10168000D90759F488819981840F951F0296918317
:1016900080838A819B81938382832115310529F47C
:1016A000F0939D03E0939C033DC0E901FB83EA8333
:1016B00049915991C40FD51FEC17FD0761F4808142
:1016C0009181840F951F0296E90199838883828115
:1016D00093819B838A83E0E0F0E012968D919C9148
:1016E0001397009719F0FD01DC01F7CF8D919C91C4
:1016F00011979D012E5F3F4F820F931F20919A03F8
:1017000030919B032817390769F4309729F4109218
:101710009D0310929C0302C013821282B0939B031C
:10172000A0939A03DF91CF910895A0E0B0E0EBE998
:10173000FBE00C94F909EC01009721F4CB010E9425
:10174000740AB4C0FC01E60FF71F9C012250310956
:10175000E217F30708F4A8C0D9010D911C91119765
:1017600006171707B0F00530110508F49BC0C80133
:1017700004978617970708F495C002501109061BB5
:10178000170B019311936D937C93CF010E940C0B67
:1017900089C05B01A01AB10A4C01800E911EA09174
:1017A0009C03B0919D03612C712CE12CF12C1097BE
:1017B00009F446C08D919C911197A815B905B1F512
:1017C0006C0142E0C40ED11CCA14DB0478F14C0158
:1017D0008A189B08640142E0C40ED11C1296BC908A
:1017E00012971396AC91B5E0CB16D10440F0B282BB
:1017F000A38391828082D9016D937C9309C00E5F8F
:101800001F4F800F911FF90191838083EB2DFA2FD9
:10181000E114F10431F0D7011396FC93EE93129783
:1018200041C0F0939D03E0939C033CC06816790689
:1018300008F43C017D0112960D90BC91A02DB7CF0C
:1018400080919A0390919B0388169906E1F466169D
:101850007706C8F48091000190910101009741F44E
:101860008DB79EB74091040150910501841B950BE3
:10187000E817F907C8F4F0939B03E0939A03F90182
:10188000718360830FC0CB010E94740A7C010097B2
:1018900059F0A801BE010E94600CCE010E940C0B01
:1018A000C70104C0CE0102C080E090E0CDB7DEB732
:1018B000EEE00C94150A81E090E0F8940C94700C22
:1018C000FB01DC0102C001900D9241505040D8F75D
:1018D0000895FB01DC0101900D920020E1F70895CD
:1018E00010E0C4E8D0E004C0FE010E946E0A219618
:0A18F000C538D107C9F7F894FFCFFF
:1018FA0000009E038000000000004401B100DB00EC
:10190A0091010C01EA00FE000000000048021B02DF
:10191A007802EF011302FF01F0010D0A00202800EE
:10192A00292000446F6D696E676F004C756E657390
:10193A00004D6172746573004D696572636F6C6501
:10194A0073004A756576657300566965726E6573CC
:10195A000053616261646F00456E65726F0046658F
:10196A00627265726F004D61727A6F0041627269CC
:10197A006C004D61796F004A756E696F004A756C2B
:10198A00696F0041676F73746F005365707469659E
:10199A006D627265004F637475627265004E6F7690
:1019AA0069656D6272650044696369656D62726535
:0219BA0000002B
:107E0000112484B714BE81FFF0D085E080938100F7
:107E100082E08093C00088E18093C10086E0809377
:107E2000C20080E18093C4008EE0C9D0259A86E02C
:107E300020E33CEF91E0309385002093840096BBD3
:107E4000B09BFECF1D9AA8958150A9F7CC24DD24C4
:107E500088248394B5E0AB2EA1E19A2EF3E0BF2EE7
:107E6000A2D0813461F49FD0082FAFD0023811F036
:107E7000013811F484E001C083E08DD089C08234E0
:107E800011F484E103C0853419F485E0A6D080C0E4
:107E9000853579F488D0E82EFF2485D0082F10E0AE
:107EA000102F00270E291F29000F111F8ED06801E7
:107EB0006FC0863521F484E090D080E0DECF843638
:107EC00009F040C070D06FD0082F6DD080E0C81688
:107ED00080E7D80618F4F601B7BEE895C0E0D1E017
:107EE00062D089930C17E1F7F0E0CF16F0E7DF06D8
:107EF00018F0F601B7BEE89568D007B600FCFDCFD4
:107F0000A601A0E0B1E02C9130E011968C91119780
:107F100090E0982F8827822B932B1296FA010C0160
:107F200087BEE89511244E5F5F4FF1E0A038BF0790
:107F300051F7F601A7BEE89507B600FCFDCF97BE46
:107F4000E89526C08437B1F42ED02DD0F82E2BD052
:107F50003CD0F601EF2C8F010F5F1F4F84911BD097
:107F6000EA94F801C1F70894C11CD11CFA94CF0C13
:107F7000D11C0EC0853739F428D08EE10CD085E9AC
:107F80000AD08FE07ACF813511F488E018D01DD067
:107F900080E101D065CF982F8091C00085FFFCCF94
:107FA0009093C60008958091C00087FFFCCF809118
:107FB000C00084FD01C0A8958091C6000895E0E648
:107FC000F0E098E1908380830895EDDF803219F02E
:107FD00088E0F5DFFFCF84E1DECF1F93182FE3DFCA
:107FE0001150E9F7F2DF1F91089580E0E8DFEE27F6
:047FF000FF270994CA
:027FFE00040479
:0400000300007E007B
:00000001FF
