:100000000C946C000C9494000C9494000C94940048
:100010000C9494000C9494000C9494000C94940010
:100020000C9494000C9494000C9494000C94940000
:100030000C9494000C9494000C9494000C949400F0
:100040000C9474040C9494000C94E4040C94BE047A
:100050000C9494000C9494000C9494000C949400D0
:100060000C9494000C949400CF076907A707AC0781
:10007000B107B607BB07C007C507CA0700000000E5
:10008000240027002A0000000000250028002B0083
:1000900000000000230026002900040404040404D6
:1000A0000404020202020202030303030303010227
:1000B00004081020408001020408102001020408F6
:1000C00010200000000800020100000304070000E7
:1000D000000000000000160511241FBECFEFD8E07D
:1000E000DEBFCDBF11E0A0E0B1E0E2ECFFE002C076
:1000F00005900D92A63DB107D9F723E0A6EDB1E03A
:1001000001C01D92A330B207E1F710E0CCE6D0E0C9
:1001100004C02197FE010E94D407CB36D107C9F74E
:100120000E94CE050C94DF070C94000096E0899F96
:10013000D0011124A458BD4F90967C936E935F9785
:1001400091E091969C9391979091E802E091E90259
:10015000F091EA02992339F0309751F0811108C0EB
:100160008091980204C0309719F05C968C910994A4
:100170000895CF92DF92EF92FF920F931F9396E034
:10018000899FF0011124E458FD4F11A2278D30A161
:100190002130310539F158F02230310509F447C0DA
:1001A0002330310509F04FC060E070E044C06623A1
:1001B00009F449C061E070E00E9496002FB7F894FE
:1001C0008091DB019091DC01A091DD01B091DE0115
:1001D0002FBF8093D4029093D502A093D602B09300
:1001E000D70231C09FB7F894C090DB01D090DC01FA
:1001F000E090DD01F090DE019FBF0091D4021091EC
:10020000D5022091D6023091D702C01AD10AE20A53
:10021000F30A0091E6021091E70220E030E00C15AD
:100220001D052E053F0518F462E070E004C0611161
:100230000AC063E070E01F910F91FF90EF90DF9094
:10024000CF900C9496001F910F91FF90EF90DF904C
:10025000CF900895FC01538D448D252F30E0842FDD
:1002600090E0821B930B541710F0CF9608950197DE
:100270000895FC01918D828D981761F0828DDF01C8
:10028000A80FB11D5D968C91928D9F5F9F73928F89
:1002900090E008958FEF9FEF0895FC01918D828D7E
:1002A000981731F0828DE80FF11D858D90E008954B
:1002B0008FEF9FEF0895FC01918D228D892F90E0A3
:1002C000805C9F4F821B91098F7399270895FC01D1
:1002D000848DDF01A80FB11DA35ABF4F2C91848DCF
:1002E00090E001968F739927848FA689B7892C9304
:1002F000A089B1898C91837080648C93938D848D57
:10030000981306C00288F389E02D80818F7D808359
:100310000895EF92FF920F931F93CF93DF93EC0119
:1003200081E0888F9B8D8C8D981305C0E889F989B1
:10033000808185FD26C0F62E0B8D10E00F5F1F4FCC
:100340000F731127E02E8C8DE8120CC00FB607FC3E
:10035000FACFE889F989808185FFF5CFCE010E9427
:100360006701F1CF8B8DFE01E80FF11DE35AFF4FBE
:10037000F0829FB7F8940B8FEA89FB8980818062B5
:100380000AC09FB7F894EE89FF896083E889F989EC
:1003900080818370806480839FBF81E090E0DF91E3
:1003A000CF911F910F91FF90EF900895CF93DF931E
:1003B000EC01888D8823C9F0EA89FB89808185FD5D
:1003C00005C0A889B9898C9186FD0FC00FB607FCBE
:1003D000F5CF808185FFF2CFA889B9898C9185FFFF
:1003E000EDCFCE010E946701E7CFDF91CF91089555
:1003F0008FED91E00E945B0121E0892B09F420E060
:10040000822F089580E090E0892B29F00E94F80166
:1004100081110C9400000895833081F028F481301C
:1004200099F08230A1F008958730A9F08830B9F0B2
:100430008430D1F4809180008F7D03C08091800052
:100440008F7780938000089584B58F7702C084B53C
:100450008F7D84BD08958091B0008F7703C0809117
:10046000B0008F7D8093B0000895CF93DF93282F45
:1004700030E0F901EE53FF4F8491F901E255FF4F4F
:10048000D491F901E656FF4FC491CC2391F081112C
:100490000E940C02EC2FF0E0EE0FFF1FE057FF4F21
:1004A000A591B491EC91ED2381E090E021F480E0FE
:1004B00002C080E090E0DF91CF9108951F93CF9329
:1004C000DF93282F30E0F901EE53FF4F8491F901BB
:1004D000E255FF4FD491F901E656FF4FC491CC236A
:1004E000C1F0162F81110E940C02EC2FF0E0EE0FEC
:1004F000FF1FEA57FF4FA591B4919FB7F8941111D0
:1005000004C08C91D095D82302C0EC91DE2BDC93F3
:100510009FBFDF91CF911F910895CF93DF9390E01C
:10052000FC01E255FF4F2491FC01E656FF4F8491F8
:10053000882361F190E0880F991FFC01E458FF4F78
:10054000C591D491FC01EA57FF4FA591B491611177
:1005500009C09FB7F8948881209582238883EC9105
:100560002E230BC0623061F49FB7F8948881322F3C
:10057000309583238883EC912E2B2C939FBF06C04C
:100580008FB7F894E8812E2B28838FBFDF91CF910E
:100590000895862F642F0C948D02862F642F0C945F
:1005A0005E02862F0C943502CF92DF92EF92FF927B
:1005B0000F931F93CF93DF936C017A018B01C0E0FF
:1005C000D0E0CE15DF0581F0D8016D918D01D60107
:1005D000ED91FC910190F081E02DC6010995892BE8
:1005E00011F02196EECF7E01C701DF91CF911F91CF
:1005F0000F91FF90EF90DF90CF900895CF93DF930E
:10060000EC0160E08E810E945E0261E08E810E94BA
:100610005E0260E08E810E945E028BE891E00197AD
:10062000F1F7DF91CF910895CF92DF92EF92FF9291
:100630000F931F93CF93DF936C017C0187E0E80E4B
:10064000F11CC0E0D0E0062F10E0B8010C2E02C073
:10065000759567950A94E2F76170F70181917F01C2
:100660000E945E022196C430D10579F7C601DF9160
:10067000CF911F910F91FF90EF90DF90CF900C944E
:10068000FE02CF92DF92EF92FF920F931F93CF93D0
:10069000DF93EC01F62E642F8C810E945E028D8127
:1006A0008F3F19F060E00E945E028F850F2D10E0F1
:1006B00084FF25C06E0187E0C80ED11CE12CF12C0F
:1006C000B8010E2C02C0759567950A94E2F7617027
:1006D000F60181916F010E945E02FFEFEF1AFF0A9F
:1006E00088E0E816F10461F7CE01DF91CF911F9108
:1006F0000F91FF90EF90DF90CF900C94FE02B80125
:1007000084E0759567958A95E1F7CE010E94140300
:100710006F2DCE01DF91CF911F910F91FF90EF9040
:10072000DF90CF900C94140340E0682F8BEE92E0A2
:100730000C944103CF93DF93823028F09091FA021A
:1007400098609093FA028093FE021092FF0280E478
:100750008093000380E18093010380E5809302038E
:1007600061E08091EF020E948D028091F0028F3F44
:1007700019F061E00E948D0261E08091F1020E9417
:100780008D02CBEED2E09E012B5E32408091FA02C8
:1007900084FD03C084E090E002C088E090E02196F0
:1007A000281739072CF461E08E810E948D02EBCF6F
:1007B0008BE39DE00197F1F760E08091EF020E94EA
:1007C0005E0260E08091F1020E945E028091F00280
:1007D0008F3F19F060E00E945E028091FA0284FD72
:1007E00020C063E08BEE92E00E941403CBE4D6E4D9
:1007F000CE010197F1F763E08BEE92E00E941403C3
:100800002197F1F763E08BEE92E00E94140383E5F9
:1008100092E00197F1F762E08BEE92E00E94140300
:1008200015C080620E9494038BE496E40197F1F76F
:100830008091FA0280620E94940383E592E001971E
:10084000F1F78091FA0280620E9494038091FA028B
:1008500080620E94940384E08093FB028CE00E94FB
:10086000940381E00E9494038BE39FE10197F1F7E9
:1008700082E08093FC0286E0DF91CF910C94940398
:10088000E091FE02E23010F4E15001C0E1E0F0E05E
:10089000E551FD4F848980680C94940341E00E94E7
:1008A000410381E090E00895089580E090E008958C
:1008B0000E94DA076115710579F0FB0101900020B3
:1008C000E9F73197AF01461B570BDC01ED91FC9125
:1008D0000280F381E02D099480E090E00895BC014E
:1008E0008BEE92E00C945A041F920F920FB60F9267
:1008F00011242F933F938F939F93AF93BF93809136
:10090000DB019091DC01A091DD01B091DE0130911D
:10091000DA0123E0230F2D3720F40196A11DB11D2C
:1009200005C026E8230F0296A11DB11D2093DA0110
:100930008093DB019093DC01A093DD01B093DE0195
:100940008091D6019091D701A091D801B091D901A1
:100950000196A11DB11D8093D6019093D701A0935C
:10096000D801B093D901BF91AF919F918F913F91E1
:100970002F910F900FBE0F901F9018951F920F92FE
:100980000FB60F9211242F933F934F935F936F9362
:100990007F938F939F93AF93BF93EF93FF938FEDCD
:1009A00091E00E946701FF91EF91BF91AF919F91FC
:1009B0008F917F916F915F914F913F912F910F9008
:1009C0000FBE0F901F9018951F920F920FB60F92A7
:1009D00011242F938F939F93EF93FF93E091EF0157
:1009E000F091F0018081E091F501F091F60182FD36
:1009F00012C090818091F8018F5F8F732091F9016F
:100A0000821751F0E091F801F0E0E152FE4F958F2E
:100A10008093F80101C08081FF91EF919F918F91A8
:100A20002F910F900FBE0F901F9018951092E2011A
:100A30001092E10188EE93E0A0E0B0E08093E30142
:100A40009093E401A093E501B093E6018CE191E07D
:100A50009093E0018093DF0185EC90E09093EC01AE
:100A60008093EB0184EC90E09093EE018093ED0194
:100A700080EC90E09093F0018093EF0181EC90E0A6
:100A80009093F2018093F10182EC90E09093F40155
:100A90008093F30186EC90E09093F6018093F5014A
:100AA0001092F8011092F9011092FA011092FB01D4
:100AB0001092EE021092ED0288E391E09093EC0226
:100AC0008093EB0281E08093EF028FEF8093F0023E
:100AD0001092F1028FE08093F20280E18093F302A2
:100AE0008AE08093F40289E08093F5021092F60286
:100AF0001092F7021092F8021092F9021092FA0284
:100B000081E00E949A0310927E021092820210925B
:100B10008102109283028EE291E090937D02809395
:100B20007C02ECE7F2E0148E10A2178E11A236962A
:100B300082E0E83BF807B9F784E091E09093DF02A8
:100B40008093DE0280E091E09093E1028093E002E6
:100B500084E08093E2028093E30288E091E0909346
:100B6000DD028093DC028AE090E09093E5028093BE
:100B7000E40284EF91E09093E7028093E602109202
:100B8000EA021092E9021092D8021092D902109251
:100B9000DA021092DB021092E8020895789484B58C
:100BA000826084BD84B5816084BD85B5826085BD69
:100BB00085B5816085BD80916E00816080936E00F7
:100BC00010928100809181008260809381008091E9
:100BD000810081608093810080918000816080939A
:100BE00080008091B10084608093B1008091B0005A
:100BF00081608093B00080917A00846080937A0055
:100C000080917A00826080937A0080917A0081607E
:100C100080937A0080917A00806880937A001092A5
:100C2000C10082E00E949A0380E491E00E946F0478
:100C300022242394812C912C5401839466246A9459
:100C4000762C56E0352E2092E8028FB7F89440912A
:100C5000DB015091DC016091DD017091DE018FBFFD
:100C60008091D8029091D902A091DA02B091DB0272
:100C7000481B590B6A0B7B0B8091E4029091E502B3
:100C8000A0E0B0E084179507A607B70708F0E4C016
:100C9000C0E08091E202C81710F0512C40C0E091F2
:100CA000DE02F091DF02EC0FF11D62E080810E9414
:100CB0008D02CF5FEECFC42DD0E0E091DE02F09147
:100CC000DF02EC0FFD1F80810E9435022496CC0FBD
:100CD000DD1FC458DD4F892B09F04BC088819981F5
:100CE0008C299D299983888343948091E202481638
:100CF00010F3E091E002F091E102E00FF11F61E0FA
:100D000080810E945E028091E0029091E102FC01EC
:100D1000E00FF11F60E080810E948D02539480916A
:100D2000E302581658F5052D10E0E091E002F0912D
:100D3000E102E00FF11F61E080810E948D02E091ED
:100D4000E002F091E102E00FF11F60E080810E947B
:100D50005E02D501C401052C04C0880F991FAA1F8B
:100D6000BB1F0A94D2F76C017C01E094F094412CF3
:100D7000BCCF888199818E219F21B4CF0CE712E0EE
:100D8000F801878D90A1892B21F4148E768E658EC3
:100D900011A2369682E0E83BF80799F7F12C809192
:100DA000E202F81650F5E12CCF2DD0E0CC0FDD1F7C
:100DB000CC57DD4F2091E302E216E8F448815981D7
:100DC0000E2C02C0569547950A94E2F7642F617085
:100DD000F29E900111242E0D311DECE7F2E080E02F
:100DE000A58DB68D2A173B0709F499C08F5F3696FB
:100DF0008A30B1F777C0F394D2CF80E0F80191A1A7
:100E0000911181E00A5F1F4FF2E0083B1F07B1F725
:100E10009FB7F8944091DB015091DC016091DD01B6
:100E20007091DE019FBF4093D8025093D902609326
:100E3000DA027093DB02882379F080919D02882387
:100E400059F080919B0290919C02019729F4E091C6
:100E50009802E11104C043C01092E80240C0E3349C
:100E6000D9F054F4E13499F0E23409F062C00E9400
:100E7000400488E591E031C0E53431F104F1E63415
:100E800009F057C00E9440048DE791E026C00E94FF
:100E9000400480E591E021C00E94400480E691E09A
:100EA0000E946F0468E671E08FED91E00E945A04A1
:100EB0006AE671E08FED91E00E945A0410C00E9432
:100EC00040048DE691E009C00E94400485E791E06E
:100ED00004C00E94400485E891E00E946F040E94D3
:100EE0000202B1CE40FF1DC0ECE7F2E080E090E0EE
:100EF000448D411118C0E091DC02F091DD02E20F57
:100F0000F31F7081389EA001399E500D1124FA0103
:100F1000E458FD4F748F368F258F10A2178E0E94D4
:100F2000B900E39447CF019636968A30910501F7D0
:100F3000F8CF8E2FEE0F990BAA0BBB0BFC01F0978D
:100F4000EA30F10560F6EC5CFF4F0C94D4070E9488
:100F500040048DE891E0C1CF0E94400485E991E012
:100F6000BCCF0E9440048DE991E0B7CF0E944004BD
:100F700085EA91E0B2CF0E9440048DEA91E0ADCFC6
:100F80000E94400485EB91E0A8CF0E9440048DEBC5
:100F900091E0A3CF0E94400485EC91E09ECF0E9497
:100FA00040048DEC91E099CFEE0FFF1F0590F49176
:100FB000E02D099481E090E0F8940C94DF07F89418
:020FC000FFCF61
:100FC200060504020C0B0807313233413435364230
:100FD2003738394330454644000000008901D402C5
:100FE2002A01D6015B0139014D0100000000C9024E
:100FF200CD02D102000000004E04D4025504540474
:1010020043444D2D496E67656E69657269612D00B5
:101012007465636C613A41007465636C613A4200C5
:101022007465636C613A430063000D0A0074656382
:101032006C613A44007465636C613A45007465639F
:101042006C613A46007465636C613A3100746563A1
:101052006C613A32007465636C613A3300746563A3
:101062006C613A34007465636C613A35007465638F
:101072006C613A36007465636C613A37007465637B
:101082006C613A38007465636C613A390074656367
:061092006C613A30000021
:00000001FF
