:100000000C946C000C9494000C9494000C94940048
:100010000C9494000C9494000C9494000C94940010
:100020000C9494000C9494000C9494000C94940000
:100030000C9494000C9494000C9494000C949400F0
:100040000C9426030C9494000C9496030C94700367
:100050000C9494000C9494000C9494000C949400D0
:100060000C9494000C94940059060406410644062E
:1000700047064A064D065006530656060000000085
:10008000240027002A0000000000250028002B0083
:1000900000000000230026002900040404040404D6
:1000A0000404020202020202030303030303010227
:1000B00004081020408001020408102001020408F6
:1000C00010200000000800020100000304070000E7
:1000D000000000000000C80311241FBECFEFD8E0CD
:1000E000DEBFCDBF11E0A0E0B1E0E2EDFCE002C078
:1000F00005900D92A835B107D9F722E0A8E5B1E047
:1001000001C01D92AD36B207E1F710E0CCE6D0E0B9
:1001100004C02197FE010E945C06CB36D107C9F7C7
:100120000E9455040C9467060C94000096E0899F89
:10013000D0011124A250BE4F90967C936E935F978E
:1001400091E091969C93919790916A02E0916B0255
:10015000F0916C02992339F0309751F0811108C069
:1001600080911A0204C0309719F05C968C91099422
:100170000895CF92DF92EF92FF920F931F9396E034
:10018000899FF0011124E250FE4F11A2278D30A16A
:100190002130310539F158F02230310509F447C0DA
:1001A0002330310509F04FC060E070E044C06623A1
:1001B00009F449C061E070E00E9496002FB7F894FE
:1001C00080915D0190915E01A0915F01B09160010D
:1001D0002FBF8093560290935702A0935802B0937A
:1001E000590231C09FB7F894C0905D01D0905E0174
:1001F000E0905F01F09060019FBF00915602109166
:1002000057022091580230915902C01AD10AE20ACD
:10021000F30A009168021091690220E030E00C15A9
:100220001D052E053F0518F462E070E004C0611161
:100230000AC063E070E01F910F91FF90EF90DF9094
:10024000CF900C9496001F910F91FF90EF90DF904C
:10025000CF900895833081F028F4813099F0823076
:10026000A1F008958730A9F08830B9F08430D1F436
:10027000809180008F7D03C0809180008F77809374
:100280008000089584B58F7702C084B58F7D84BDCA
:1002900008958091B0008F7703C08091B0008F7D6A
:1002A0008093B0000895CF93DF93282F30E0F901B9
:1002B000EE53FF4F8491F901E255FF4FD491F901BC
:1002C000E656FF4FC491CC2391F081110E942A0180
:1002D000EC2FF0E0EE0FFF1FE057FF4FA591B49118
:1002E000EC91ED2381E090E021F480E002C080E019
:1002F00090E0DF91CF9108951F93CF93DF93282F44
:1003000030E0F901EE53FF4F8491F901E255FF4FC0
:10031000D491F901E656FF4FC491CC23C1F0162FBA
:1003200081110E942A01EC2FF0E0EE0FFF1FEA5727
:10033000FF4FA591B4919FB7F894111104C08C910F
:10034000D095D82302C0EC91DE2BDC939FBFDF91C8
:10035000CF911F910895CF93DF9390E0FC01E25578
:10036000FF4F2491FC01E656FF4F8491882361F1F1
:1003700090E0880F991FFC01E458FF4FC591D4917C
:10038000FC01EA57FF4FA591B491611109C09FB7D5
:10039000F8948881209582238883EC912E230BC0CA
:1003A000623061F49FB7F8948881322F30958323AF
:1003B0008883EC912E2B2C939FBF06C08FB7F894A7
:1003C000E8812E2B28838FBFDF91CF910895862F50
:1003D000642F0C94AB01862F642F0C947C01862F24
:1003E0000C945301CF92DF92EF92FF920F931F93E1
:1003F000CF93DF936C017A018B01C0E0D0E0CE1582
:10040000DF0581F0D8016D918D01D601ED91FC9150
:100410000190F081E02DC6010995892B11F02196FC
:10042000EECF7E01C701DF91CF911F910F91FF9019
:10043000EF90DF90CF900895089580E090E00895C8
:10044000FC01538D448D252F30E0842F90E0821BDA
:10045000930B541710F0CF96089501970895FC015F
:10046000918D828D981761F0828DDF01A80FB11DEB
:100470005D968C91928D9F5F9F73928F90E008950F
:100480008FEF9FEF0895FC01918D828D981731F0C9
:10049000828DE80FF11D858D90E008958FEF9FEF1D
:1004A0000895FC01918D228D892F90E0805C9F4FF3
:1004B000821B91098F739927089581E691E00E942C
:1004C000510221E0892B09F420E0822F0895FC01DC
:1004D000848DDF01A80FB11DA35ABF4F2C91848DCD
:1004E00090E001968F739927848FA689B7892C9302
:1004F000A089B1898C91837080648C93938D848D55
:10050000981306C00288F389E02D80818F7D808357
:100510000895EF92FF920F931F93CF93DF93EC0117
:1005200081E0888F9B8D8C8D981305C0E889F989AF
:10053000808185FD26C0F62E0B8D10E00F5F1F4FCA
:100540000F731127E02E8C8DE8120CC00FB607FC3C
:10055000FACFE889F989808185FFF5CFCE010E9425
:100560006702F1CF8B8DFE01E80FF11DE35AFF4FBB
:10057000F0829FB7F8940B8FEA89FB8980818062B3
:100580000AC09FB7F894EE89FF896083E889F989EA
:1005900080818370806480839FBF81E090E0DF91E1
:1005A000CF911F910F91FF90EF900895CF93DF931C
:1005B000EC01888D8823C9F0EA89FB89808185FD5B
:1005C00005C0A889B9898C9186FD0FC00FB607FCBC
:1005D000F5CF808185FFF2CFA889B9898C9185FFFD
:1005E000EDCFCE010E946702E7CFDF91CF91089552
:1005F00080E090E0892B29F00E945D0281110C942B
:1006000000000895CF93DF93009779F0FC010190EB
:100610000020E9F73197AF01481B590BBC0181E677
:1006200091E00E94F201EC0102C0C0E0D0E042E0A3
:1006300050E064E371E081E691E00E94F2018C0FEA
:100640009D1FDF91CF9108950E9462061F920F9225
:100650000FB60F9211242F933F938F939F93AF93D5
:10066000BF9380915D0190915E01A0915F01B09177
:10067000600130915C0123E0230F2D3720F40196B7
:10068000A11DB11D05C026E8230F0296A11DB11DB5
:1006900020935C0180935D0190935E01A0935F01C4
:1006A000B09360018091580190915901A0915A0135
:1006B000B0915B010196A11DB11D809358019093EB
:1006C0005901A0935A01B0935B01BF91AF919F91E3
:1006D0008F913F912F910F900FBE0F901F90189503
:1006E0001F920F920FB60F9211242F933F934F93A7
:1006F0005F936F937F938F939F93AF93BF93EF938A
:10070000FF9381E691E00E946702FF91EF91BF9114
:10071000AF919F918F917F916F915F914F913F9199
:100720002F910F900FBE0F901F9018951F920F9250
:100730000FB60F9211242F938F939F93EF93FF93F4
:10074000E0917101F09172018081E0917701F09167
:10075000780182FD12C0908180917A018F5F8F7342
:1007600020917B01821751F0E0917A01F0E0EF597E
:10077000FE4F958F80937A0101C08081FF91EF91A8
:100780009F918F912F910F900FBE0F901F901895F2
:10079000109264011092630188EE93E0A0E0B0E053
:1007A0008093650190936601A0936701B0936801FF
:1007B0008CE191E0909362018093610185EC90E07F
:1007C00090936E0180936D0184EC90E090937001A2
:1007D00080936F0180EC90E090937201809371019F
:1007E00081EC90E0909374018093730182EC90E02F
:1007F000909376018093750186EC90E09093780158
:100800008093770110927A0110927B0110927C0103
:1008100010927D01109200021092040210920302C5
:10082000109205028EE291E09093FF018093FE0109
:10083000EEEFF1E0148E10A2178E11A2369682E030
:10084000EA33F807B9F784E091E09093610280936E
:10085000600280E091E0909363028093620284E002
:10086000809364028093650288E091E090935F0238
:1008700080935E028AE090E0909367028093660224
:1008800084EF91E0909369028093680210926C0269
:1008900010926B0210925A0210925B0210925C024C
:1008A00010925D0210926A020895789484B5826075
:1008B00084BD84B5816084BD85B5826085BD85B504
:1008C000816085BD80916E00816080936E00109282
:1008D00081008091810082608093810080918100FD
:1008E000816080938100809180008160809380008E
:1008F0008091B10084608093B1008091B0008160EC
:100900008093B00080917A00846080937A00809117
:100910007A00826080937A0080917A00816080936F
:100920007A0080917A00806880937A001092C100EA
:10093000E0917101F091720182E08083E0916D019C
:10094000F0916E011082E0916F01F09170018FECD7
:10095000808310927901E0917501F091760186E033
:100960008083E0917301F0917401808180618083C4
:10097000E0917301F0917401808188608083E0913F
:100980007301F0917401808180688083E09173012C
:10099000F091740180818F7D8083812C912C540192
:1009A00083945AE3C52E52E0D52E22242A94322C69
:1009B00021E020936A028FB7F89440915D01509135
:1009C0005E0160915F01709160018FBF80915A025A
:1009D00090915B02A0915C02B0915D02481B590BA3
:1009E0006A0B7B0B8091660290916702A0E0B0E0F9
:1009F00084179507A607B70708F0E4C0C0E0809108
:100A00006402C81710F0512C40C0E0916002F091D0
:100A10006102EC0FF11D62E080810E94AB01CF5FAB
:100A2000EECFC42DD0E0E0916002F0916102EC0FB6
:100A3000FD1F80810E9453012496CC0FDD1FC25000
:100A4000DE4F892B09F04BC088819981862997292F
:100A500099838883439480916402481610F3E0914F
:100A60006202F0916302E00FF11F61E080810E9459
:100A70007C018091620290916302FC01E00FF11F02
:100A800060E080810E94AB0153948091650258160A
:100A900058F5052D10E0E0916202F0916302E00F3D
:100AA000F11F61E080810E94AB01E0916202F09150
:100AB0006302E00FF11F60E080810E947C01D5019C
:100AC000C401052C04C0880F991FAA1FBB1F0A94DC
:100AD000D2F73C017C01E094F094412CBCCF88819A
:100AE00099818E219F21B4CFCEEFD1E0FE01878D79
:100AF00090A1892B21F4148E368E258E11A2369664
:100B0000CE16DF06A1F710E080916402181770F589
:100B100000E0E12EF12CC701880F991FFC01EA5F6C
:100B2000FD4F7F01209165020217F0F4F70140812B
:100B30005181002E02C0569547950A94E2F7642F22
:100B40006170129F90011124200F311DEEEFF1E032
:100B500080E0A58DB68D2A173B0709F47AC08F5F18
:100B600036968A30B1F757C01F5FCECF80E099A18B
:100B7000911181E02696CC16DD06C9F79FB7F8944F
:100B800040915D0150915E0160915F017091600143
:100B90009FBF40935A0250935B0260935C02709334
:100BA0005D02882379F080911F02882359F080919B
:100BB0001D0290911E02019729F4E0911A02E111A1
:100BC00004C026C010926A0223C0E334A1F044F4AA
:100BD000E13471F0E23409F046C089E391E016C0D7
:100BE000E53479F05CF0E634F1F581E491E00EC093
:100BF00087E391E00BC08BE391E008C08DE391E0C7
:100C000005C08FE391E002C083E491E00E940203FB
:100C10000E94F802CDCE40FF1EC0EEEFF1E080E072
:100C200090E0448D411119C0E0915E02F0915F02A5
:100C3000E20FF31F7081F6E0F89FA001F99F500DBD
:100C40001124FA01E250FE4F748F368F258F10A2C7
:100C5000178E0E94B9000F5F65CF019636968A30D5
:100C60009105F9F6F8CF8E2FEE0F990BAA0BBB0B5F
:100C7000FC01F097EA30F10558F6EC5CFF4F0C945C
:100C80005C0685E491E0C2CF87E491E0BFCF89E4C0
:100C900091E0BCCF8BE491E0B9CF8DE491E0B6CF89
:100CA0008FE491E0B3CF81E591E0B0CF83E591E0AF
:100CB000ADCF85E591E0AACFEE0FFF1F0590F4912F
:100CC000E02D099481E090E0F8940C946706F89484
:020CD000FFCF54
:100CD200060504020C0B0807313233413435364223
:100CE2003738394330454644000000008902F2019A
:100CF2002002D60251022F02430200000000E70147
:100D0200EB01EF010D0A004100420063004400457F
:100D1200004600310032003300340035003600371F
:080D2200003800390030000028
:00000001FF
