:100000000C945D000C9485000C9485000C94850084
:100010000C9485000C9485000C9485000C9485004C
:100020000C9485000C9485000C9485000C9485003C
:100030000C9485000C9485000C9485000C9485002C
:100040000C945A020C9485000C94CA020C94A402DD
:100050000C9485000C9485000C9485000C9485000C
:100060000C9485000C9485000000000024002700FB
:100070002A0000000000250028002B0004040404CE
:100080000404040402020202020203030303030342
:10009000010204081020408001020408102001021F
:1000A00004081020000000080002010000030407FB
:1000B00000000000000000007A0411241FBECFEFF2
:1000C000D8E0DEBFCDBF11E0A0E0B1E0E6E1FAE0AC
:1000D00002C005900D92AC32B107D9F721E0ACE235
:1000E000B1E001C01D92A63DB207E1F710E0CDE5F9
:1000F000D0E004C02197FE010E94FE04CC35D10758
:10010000C9F70E94FC020C9409050C940000E1EB75
:10011000F0E09491EDE9F0E02491E9E8F0E0E49179
:10012000EE2309F43CC0992339F1933091F038F46F
:100130009130A9F0923001F594B59F7D12C09730AF
:1001400091F09830A1F09430B9F4909180009F7DA7
:1001500003C0909180009F77909380000DC094B56C
:100160009F7794BD09C09091B0009F7703C0909194
:10017000B0009F7D9093B000F0E0EE0FFF1FEE58AF
:10018000FF4FA591B4919FB7F894811104C08C9151
:100190002095282302C0EC912E2B2C939FBF08950D
:1001A0003FB7F8948091350190913601A0913701C5
:1001B000B091380126B5A89B05C02F3F19F00196D4
:1001C000A11DB11D3FBFBA2FA92F982F8827820FDD
:1001D000911DA11DB11DBC01CD0142E0660F771F2D
:1001E000881F991F4A95D1F70895CF92DF92EF9219
:1001F000FF920F931F93CF93DF936C017A018B01D2
:10020000C0E0D0E0CE15DF0581F0D8016D918D0101
:10021000D601ED91FC910190F081E02DC601099588
:10022000892B11F02196EECF7E01C701DF91CF918E
:100230001F910F91FF90EF90DF90CF900895089558
:1002400080E090E00895FC01538D448D252F30E02F
:10025000842F90E0821B930B541710F0CF960895D3
:1002600001970895FC01918D828D981761F0828D20
:10027000DF01A80FB11D5D968C91928D9F5F9F73DA
:10028000928F90E008958FEF9FEF0895FC01918D7C
:10029000828D981731F0828DE80FF11D858D90E0E9
:1002A00008958FEF9FEF0895FC01918D228D892F86
:1002B00090E0805C9F4F821B91098F73992708956E
:1002C00089E391E00E94540121E0892B09F420E0A8
:1002D000822F0895FC01848DDF01A80FB11DA35A60
:1002E000BF4F2C91848D90E001968F739927848F56
:1002F000A689B7892C93A089B1898C918370806479
:100300008C93938D848D981306C00288F389E02D19
:1003100080818F7D80830895EF92FF920F931F93CA
:10032000CF93DF93EC0181E0888F9B8D8C8D9813A8
:1003300005C0E889F989808185FD26C0F62E0B8DE0
:1003400010E00F5F1F4F0F731127E02E8C8DE81206
:100350000CC00FB607FCFACFE889F989808185FFC8
:10036000F5CFCE010E946A01F1CF8B8DFE01E80F1F
:10037000F11DE35AFF4FF0829FB7F8940B8FEA8983
:10038000FB89808180620AC09FB7F894EE89FF895B
:100390006083E889F98980818370806480839FBF4E
:1003A00081E090E0DF91CF911F910F91FF90EF904E
:1003B0000895CF93DF93EC01888D8823C9F0EA89F3
:1003C000FB89808185FD05C0A889B9898C9186FD4E
:1003D0000FC00FB607FCF5CF808185FFF2CFA8894B
:1003E000B9898C9185FFEDCFCE010E946A01E7CFDC
:1003F000DF91CF91089580E090E0892B29F00E9451
:10040000600181110C9400000895009769F0FC01CF
:1004100001900020E9F73197AF01481B590BBC014F
:1004200089E391E00C94F50080E090E008958F92CC
:100430009F92AF92BF920F931F93CF93DF93CDB74D
:10044000DEB7A1970FB6F894DEBF0FBECDBF19A2DD
:10045000423008F44AE08E010F5D1F4F842E912C2C
:10046000A12CB12CA50194010E94C604E62FB9016C
:10047000CA0101501109EA3014F4E05D01C0E95CE1
:10048000D801EC93232B242B252B61F7C8010E9464
:100490000502A1960FB6F894DEBF0FBECDBFDF9167
:1004A000CF911F910F91BF90AF909F908F90089523
:1004B0000E9404051F920F920FB60F9211242F93E2
:1004C0003F938F939F93AF93BF938091310190910E
:1004D0003201A0913301B09134013091300123E019
:1004E000230F2D3720F40196A11DB11D05C026E86C
:1004F000230F0296A11DB11D20933001809331017D
:1005000090933201A0933301B0933401809135016F
:1005100090913601A0913701B09138010196A11D4B
:10052000B11D8093350190933601A0933701B093AC
:100530003801BF91AF919F918F913F912F910F9073
:100540000FBE0F901F9018951F920F920FB60F922B
:1005500011242F933F934F935F936F937F938F93C8
:100560009F93AF93BF93EF93FF9389E391E00E9432
:100570006A01FF91EF91BF91AF919F918F917F9110
:100580006F915F914F913F912F910F900FBE0F9000
:100590001F9018951F920F920FB60F9211242F9350
:1005A0008F939F93EF93FF93E0914901F0914A015C
:1005B0008081E0914F01F091500182FD12C0908145
:1005C000809152018F5F8F7320915301821751F0F8
:1005D000E0915201F0E0E75CFE4F958F809352016D
:1005E00001C08081FF91EF919F918F912F910F908A
:1005F0000FBE0F901F901895789484B5826084BDCB
:1006000084B5816084BD85B5826085BD85B5816016
:1006100085BD80916E00816080936E001092810094
:10062000809181008260809381008091810081604F
:100630008093810080918000816080938000809110
:10064000B10084608093B1008091B000816080939C
:10065000B00080917A00846080937A0080917A0063
:10066000826080937A0080917A00816080937A0022
:1006700080917A00806880937A001092C100E091A6
:100680004901F0914A0182E08083E0914501F091B7
:1006900046011082E0914701F09148018FEC808380
:1006A00010925101E0914D01F0914E0186E080835E
:1006B000E0914B01F0914C01808180618083E09159
:1006C0004B01F0914C01808188608083E0914B0167
:1006D000F0914C01808180688083E0914B01F09122
:1006E0004C0180818F7D808344244A94E3E05E2E18
:1006F000612C712CFDE92F2EF0E03F2E09E810E06F
:10070000C1EBD0E023E420937C0080917A008064E8
:1007100080937A0080917A0086FDFCCFA0917800CA
:1007200080917900B0E0B82BB0932F01A0932E01F7
:100730002FEF30E00E94F704A30192010E94A7046A
:10074000C90130932D0120932C01F1016491F8012E
:100750004491442399F050E0440F551FFA01E859A1
:10076000FF4FA591B491FA01EE58FF4F4591549176
:100770005FB7F8944C91642B6C935FBF009711F4B2
:1007800080E004C08F3F910521F481E00E94870042
:1007900042C0FE0144914330F9F048F44130B9F0D1
:1007A0004230A1F584B5806284BD28BD34C0473095
:1007B000E9F0483019F1443049F5809180008062B9
:1007C0008093800030938B0020938A0024C084B5EE
:1007D000806884BD27BD1FC08091800080688093A1
:1007E0008000309389002093880015C08091B0006C
:1007F00080688093B0002093B3000DC08091B0005A
:1008000080628093B0002093B40005C080389105C9
:100810000CF0BBCFB5CF82E191E00E940502C09001
:100820002E01D0902F010D2C000CEE08FF08F7FED2
:100830000EC06DE289E391E00E948C016627772764
:10084000CB016C197D098E099F094AE003C04AE07B
:10085000C701B6010E9417028CE191E00E940502D7
:10086000C0902C01D0902D010D2C000CEE08FF083B
:10087000F7FE0EC06DE289E391E00E948C016627CD
:100880007727CB016C197D098E099F094AE003C0C7
:100890004AE0C701B6010E94170288E291E00E9477
:1008A00005020E94D0004B015C0182E0C82ED12CD1
:1008B000E12CF12C0E94D000DC01CB0188199909B0
:1008C000AA09BB09883E9340A105B10598F3F1E060
:1008D000CF1AD108E108F10828EE820E23E0921E1B
:1008E000A11CB11CC114D104E104F10419F70E9448
:1008F000FB0108CFE9E3F1E01382128288EE93E076
:10090000A0E0B0E084839583A683B78384E091E080
:100910009183808385EC90E09587848784EC90E0D8
:100920009787868780EC90E0918B808B81EC90E0BC
:10093000938B828B82EC90E0958B848B86EC90E09D
:10094000978B868B118E128E138E148E0895052E22
:1009500097FB1EF400940E94BE0457FD07D00E942E
:10096000C60407FC03D04EF40C94BE045095409589
:10097000309521953F4F4F4F5F4F0895909580954B
:10098000709561957F4F8F4F9F4F0895A1E21A2E6A
:10099000AA1BBB1BFD010DC0AA1FBB1FEE1FFF1F23
:1009A000A217B307E407F50720F0A21BB30BE40B73
:1009B000F50B661F771F881F991F1A9469F76095BA
:1009C0007095809590959B01AC01BD01CF01089574
:1009D000A29FB001B39FC001A39F700D811D112480
:1009E000911DB29F700D811D1124911D08950E94CB
:1009F000E804B7FF0895821B930B0895EE0FFF1FC5
:100A00000590F491E02D099481E090E0F8940C9425
:060A10000905F894FFCF78
:100A1600000000008C01F5002301D90154013201C8
:100A2600460173656E736F72203D200009206F7555
:0C0A360074707574203D20000D0A000053
:107E0000112484B714BE81FFF0D085E080938100F7
:107E100082E08093C00088E18093C10086E0809377
:107E2000C20080E18093C4008EE0C9D0259A86E02C
:107E300020E33CEF91E0309385002093840096BBD3
:107E4000B09BFECF1D9AA8958150A9F7CC24DD24C4
:107E500088248394B5E0AB2EA1E19A2EF3E0BF2EE7
:107E6000A2D0813461F49FD0082FAFD0023811F036
:107E7000013811F484E001C083E08DD089C08234E0
:107E800011F484E103C0853419F485E0A6D080C0E4
:107E9000853579F488D0E82EFF2485D0082F10E0AE
:107EA000102F00270E291F29000F111F8ED06801E7
:107EB0006FC0863521F484E090D080E0DECF843638
:107EC00009F040C070D06FD0082F6DD080E0C81688
:107ED00080E7D80618F4F601B7BEE895C0E0D1E017
:107EE00062D089930C17E1F7F0E0CF16F0E7DF06D8
:107EF00018F0F601B7BEE89568D007B600FCFDCFD4
:107F0000A601A0E0B1E02C9130E011968C91119780
:107F100090E0982F8827822B932B1296FA010C0160
:107F200087BEE89511244E5F5F4FF1E0A038BF0790
:107F300051F7F601A7BEE89507B600FCFDCF97BE46
:107F4000E89526C08437B1F42ED02DD0F82E2BD052
:107F50003CD0F601EF2C8F010F5F1F4F84911BD097
:107F6000EA94F801C1F70894C11CD11CFA94CF0C13
:107F7000D11C0EC0853739F428D08EE10CD085E9AC
:107F80000AD08FE07ACF813511F488E018D01DD067
:107F900080E101D065CF982F8091C00085FFFCCF94
:107FA0009093C60008958091C00087FFFCCF809118
:107FB000C00084FD01C0A8958091C6000895E0E648
:107FC000F0E098E1908380830895EDDF803219F02E
:107FD00088E0F5DFFFCF84E1DECF1F93182FE3DFCA
:107FE0001150E9F7F2DF1F91089580E0E8DFEE27F6
:047FF000FF270994CA
:027FFE00040479
:0400000300007E007B
:00000001FF
