:100000000C9435000C945D000C945D000C945D0024
:100010000C945D000C945D000C945D000C945D00EC
:100020000C945D000C945D000C945D000C945D00DC
:100030000C945D000C945D000C945D000C945D00CC
:100040000C94A8010C945D000C9418020C94F2011D
:100050000C945D000C945D000C945D000C945D00AC
:100060000C945D000C945D006A0311241FBECFEF59
:10007000D8E0DEBFCDBF11E0A0E0B1E0E6EFF7E0F1
:1000800002C005900D92A631B107D9F721E0A6E193
:10009000B1E001C01D92AC3BB207E1F710E0C5E34F
:1000A000D0E004C02197FE010E94DF03C433D107D2
:1000B000C9F70E944A020C94F9030C9400003FB760
:1000C000F89480911B0190911C01A0911D01B091A9
:1000D0001E0126B5A89B05C02F3F19F00196A11D52
:1000E000B11D3FBFBA2FA92F982F8827820F911DCE
:1000F000A11DB11DBC01CD0142E0660F771F881F15
:10010000991F4A95D1F70895CF92DF92EF92FF920F
:100110000F931F93CF93DF936C017A018B01C0E0A3
:10012000D0E0CE15DF0581F0D8016D918D01D601AB
:10013000ED91FC910190F081E02DC6010995892B8C
:1001400011F02196EECF7E01C701DF91CF911F9173
:100150000F91FF90EF90DF90CF900895089580E089
:1001600090E00895FC01538D448D252F30E0842FBD
:1001700090E0821B930B541710F0CF9608950197CF
:100180000895FC01918D828D981761F0828DDF01B9
:10019000A80FB11D5D968C91928D9F5F9F73928F7A
:1001A00090E008958FEF9FEF0895FC01918D828D6F
:1001B000981731F0828DE80FF11D858D90E008953C
:1001C0008FEF9FEF0895FC01918D228D892F90E094
:1001D000805C9F4F821B91098F73992708958FE14F
:1001E00091E00E94E30021E0892B09F420E0822FB6
:1001F0000895FC01848DDF01A80FB11DA35ABF4FE4
:100200002C91848D90E001968F739927848FA68915
:10021000B7892C93A089B1898C91837080648C9369
:10022000938D848D981306C00288F389E02D808118
:100230008F7D80830895EF92FF920F931F93CF934A
:10024000DF93EC0181E0888F9B8D8C8D981305C026
:10025000E889F989808185FD26C0F62E0B8D10E096
:100260000F5F1F4F0F731127E02E8C8DE8120CC00B
:100270000FB607FCFACFE889F989808185FFF5CFB1
:10028000CE010E94F900F1CF8B8DFE01E80FF11D28
:10029000E35AFF4FF0829FB7F8940B8FEA89FB89EE
:1002A000808180620AC09FB7F894EE89FF896083DD
:1002B000E889F98980818370806480839FBF81E0B1
:1002C00090E0DF91CF911F910F91FF90EF900895F3
:1002D000CF93DF93EC01888D8823C9F0EA89FB89ED
:1002E000808185FD05C0A889B9898C9186FD0FC0E4
:1002F0000FB607FCF5CF808185FFF2CFA889B989B9
:100300008C9185FFEDCFCE010E94F900E7CFDF9100
:10031000CF91089580E090E0892B29F00E94EF00B2
:1003200081110C9400000895009769F0FC01019080
:100330000020E9F73197AF01481B590BBC018FE151
:1003400091E00C94840080E090E008950E94F40312
:100350001F920F920FB60F9211242F933F938F93FA
:100360009F93AF93BF938091170190911801A09133
:100370001901B0911A013091160123E0230F2D3796
:1003800020F40196A11DB11D05C026E8230F029699
:10039000A11DB11D209316018093170190931801A0
:1003A000A0931901B0931A0180911B0190911C0137
:1003B000A0911D01B0911E010196A11DB11D809358
:1003C0001B0190931C01A0931D01B0931E01BF91CE
:1003D000AF919F918F913F912F910F900FBE0F90F2
:1003E0001F9018951F920F920FB60F9211242F9302
:1003F0003F934F935F936F937F938F939F93AF93AD
:10040000BF93EF93FF938FE191E00E94F900FF917A
:10041000EF91BF91AF919F918F917F916F915F917C
:100420004F913F912F910F900FBE0F901F901895F5
:100430001F920F920FB60F9211242F938F939F93B9
:10044000EF93FF93E0912F01F09130018081E091D3
:100450003501F091360182FD12C090818091380102
:100460008F5F8F7320913901821751F0E09138012D
:10047000F0E0E15EFE4F958F8093380101C08081EE
:10048000FF91EF919F918F912F910F900FBE0F9041
:100490001F901895CF93DF93CDB7DEB7A1970FB616
:1004A000F894DEBF0FBECDBF789484B5826084BD62
:1004B00084B5816084BD85B5826085BD85B5816068
:1004C00085BD80916E00816080936E0010928100E6
:1004D00080918100826080938100809181008160A1
:1004E0008093810080918000816080938000809162
:1004F000B10084608093B1008091B00081608093EE
:10050000B00080917A00846080937A0080917A00B4
:10051000826080937A0080917A00816080937A0073
:1005200080917A00806880937A001092C100E091F7
:100530002F01F091300182E08083E0912B01F09156
:100540002C011082E0912D01F0912E0180E1808339
:1005500010923701E0913301F091340186E08083FD
:10056000E0913101F0913201808180618083E091DE
:100570003101F0913201808188608083E091310106
:10058000F0913201808180688083E0913101F091A7
:10059000320180818F7D808393E4392E00E014E066
:1005A0002AE0822E912CA12CB12C30927C008091DB
:1005B0007A00806480937A0080917A0086FDFCCF77
:1005C000A091780080917900B0E0B82BA8014A1B77
:1005D0005B0B20E137E20E94D8036B017C0126E926
:1005E00030E0DA010E94D8039B01AC01C701B601DB
:1005F0000E94B9036901330FEE08FF08F7FE20C01F
:100600006DE28FE191E00E941B0122273327A901AF
:100610002C193D094E095F0919A2CE0181967C0172
:10062000CA01B901A50194010E949703605DF70119
:1006300062937F01211531054105510589F715C0E8
:10064000A701960119A2CE0181967C01CA01B901C8
:10065000A50194010E949703605DF70162937F01F9
:10066000211531054105510589F7C7010E94940103
:1006700042E050E062E171E08FE191E00E9484008D
:100680000E945F002B013C0188EEC82E83E0D82E2B
:10069000E12CF12C0E945F00DC01CB01841995094B
:1006A000A609B709883E9340A105B10598F3F1E08A
:1006B000CF1AD108E108F10828EE420E23E0521EBD
:1006C000611C711CC114D104E104F10419F70E94EA
:1006D0008A016BCFEFE1F1E01382128288EE93E0A2
:1006E000A0E0B0E084839583A683B78384E091E0A3
:1006F0009183808385EC90E09587848784EC90E0FB
:100700009787868780EC90E0918B808B81EC90E0DE
:10071000938B828B82EC90E0958B848B86EC90E0BF
:10072000978B868B118E128E138E148E0895A1E2F4
:100730001A2EAA1BBB1BFD010DC0AA1FBB1FEE1F5B
:10074000FF1FA217B307E407F50720F0A21BB30BA6
:10075000E40BF50B661F771F881F991F1A9469F722
:1007600060957095809590959B01AC01BD01CF017E
:100770000895052E97FB1EF400940E94D00357FDA8
:1007800007D00E94970307FC03D04EF40C94D003CB
:1007900050954095309521953F4F4F4F5F4F0895AD
:1007A00090958095709561957F4F8F4F9F4F0895DD
:1007B0000E94E503B7FF0895821B930B0895EE0F87
:1007C000FF1F0590F491E02D0994A29FB001B39F03
:1007D000C001A39F700D811D1124911DB29F700D4A
:1007E000811D1124911D089581E090E0F8940C94EE
:0607F000F903F894FFCFAD
:1007F600000000001B018400B2006801E300C10094
:06080600D5000D0A000000
:00000001FF
